{
  "contractName": "ColorBubble",
  "abi": [
    {
      "inputs": [],
      "stateMutability": "nonpayable",
      "type": "constructor"
    },
    {
      "anonymous": false,
      "inputs": [
        {
          "indexed": true,
          "internalType": "address",
          "name": "owner",
          "type": "address"
        },
        {
          "indexed": true,
          "internalType": "address",
          "name": "approved",
          "type": "address"
        },
        {
          "indexed": true,
          "internalType": "uint256",
          "name": "tokenId",
          "type": "uint256"
        }
      ],
      "name": "Approval",
      "type": "event"
    },
    {
      "anonymous": false,
      "inputs": [
        {
          "indexed": true,
          "internalType": "address",
          "name": "owner",
          "type": "address"
        },
        {
          "indexed": true,
          "internalType": "address",
          "name": "operator",
          "type": "address"
        },
        {
          "indexed": false,
          "internalType": "bool",
          "name": "approved",
          "type": "bool"
        }
      ],
      "name": "ApprovalForAll",
      "type": "event"
    },
    {
      "anonymous": false,
      "inputs": [
        {
          "indexed": true,
          "internalType": "address",
          "name": "from",
          "type": "address"
        },
        {
          "indexed": true,
          "internalType": "address",
          "name": "to",
          "type": "address"
        },
        {
          "indexed": true,
          "internalType": "uint256",
          "name": "tokenId",
          "type": "uint256"
        }
      ],
      "name": "Transfer",
      "type": "event"
    },
    {
      "inputs": [
        {
          "internalType": "address",
          "name": "to",
          "type": "address"
        },
        {
          "internalType": "uint256",
          "name": "tokenId",
          "type": "uint256"
        }
      ],
      "name": "approve",
      "outputs": [],
      "stateMutability": "nonpayable",
      "type": "function"
    },
    {
      "inputs": [
        {
          "internalType": "address",
          "name": "owner",
          "type": "address"
        }
      ],
      "name": "balanceOf",
      "outputs": [
        {
          "internalType": "uint256",
          "name": "",
          "type": "uint256"
        }
      ],
      "stateMutability": "view",
      "type": "function",
      "constant": true
    },
    {
      "inputs": [
        {
          "internalType": "uint256",
          "name": "",
          "type": "uint256"
        }
      ],
      "name": "colors",
      "outputs": [
        {
          "internalType": "string",
          "name": "",
          "type": "string"
        }
      ],
      "stateMutability": "view",
      "type": "function",
      "constant": true
    },
    {
      "inputs": [
        {
          "internalType": "uint256",
          "name": "tokenId",
          "type": "uint256"
        }
      ],
      "name": "getApproved",
      "outputs": [
        {
          "internalType": "address",
          "name": "",
          "type": "address"
        }
      ],
      "stateMutability": "view",
      "type": "function",
      "constant": true
    },
    {
      "inputs": [
        {
          "internalType": "address",
          "name": "owner",
          "type": "address"
        },
        {
          "internalType": "address",
          "name": "operator",
          "type": "address"
        }
      ],
      "name": "isApprovedForAll",
      "outputs": [
        {
          "internalType": "bool",
          "name": "",
          "type": "bool"
        }
      ],
      "stateMutability": "view",
      "type": "function",
      "constant": true
    },
    {
      "inputs": [],
      "name": "name",
      "outputs": [
        {
          "internalType": "string",
          "name": "",
          "type": "string"
        }
      ],
      "stateMutability": "view",
      "type": "function",
      "constant": true
    },
    {
      "inputs": [
        {
          "internalType": "uint256",
          "name": "tokenId",
          "type": "uint256"
        }
      ],
      "name": "ownerOf",
      "outputs": [
        {
          "internalType": "address",
          "name": "",
          "type": "address"
        }
      ],
      "stateMutability": "view",
      "type": "function",
      "constant": true
    },
    {
      "inputs": [
        {
          "internalType": "address",
          "name": "from",
          "type": "address"
        },
        {
          "internalType": "address",
          "name": "to",
          "type": "address"
        },
        {
          "internalType": "uint256",
          "name": "tokenId",
          "type": "uint256"
        }
      ],
      "name": "safeTransferFrom",
      "outputs": [],
      "stateMutability": "nonpayable",
      "type": "function"
    },
    {
      "inputs": [
        {
          "internalType": "address",
          "name": "from",
          "type": "address"
        },
        {
          "internalType": "address",
          "name": "to",
          "type": "address"
        },
        {
          "internalType": "uint256",
          "name": "tokenId",
          "type": "uint256"
        },
        {
          "internalType": "bytes",
          "name": "_data",
          "type": "bytes"
        }
      ],
      "name": "safeTransferFrom",
      "outputs": [],
      "stateMutability": "nonpayable",
      "type": "function"
    },
    {
      "inputs": [
        {
          "internalType": "address",
          "name": "operator",
          "type": "address"
        },
        {
          "internalType": "bool",
          "name": "approved",
          "type": "bool"
        }
      ],
      "name": "setApprovalForAll",
      "outputs": [],
      "stateMutability": "nonpayable",
      "type": "function"
    },
    {
      "inputs": [
        {
          "internalType": "bytes4",
          "name": "interfaceId",
          "type": "bytes4"
        }
      ],
      "name": "supportsInterface",
      "outputs": [
        {
          "internalType": "bool",
          "name": "",
          "type": "bool"
        }
      ],
      "stateMutability": "view",
      "type": "function",
      "constant": true
    },
    {
      "inputs": [],
      "name": "symbol",
      "outputs": [
        {
          "internalType": "string",
          "name": "",
          "type": "string"
        }
      ],
      "stateMutability": "view",
      "type": "function",
      "constant": true
    },
    {
      "inputs": [
        {
          "internalType": "uint256",
          "name": "index",
          "type": "uint256"
        }
      ],
      "name": "tokenByIndex",
      "outputs": [
        {
          "internalType": "uint256",
          "name": "",
          "type": "uint256"
        }
      ],
      "stateMutability": "view",
      "type": "function",
      "constant": true
    },
    {
      "inputs": [
        {
          "internalType": "address",
          "name": "owner",
          "type": "address"
        },
        {
          "internalType": "uint256",
          "name": "index",
          "type": "uint256"
        }
      ],
      "name": "tokenOfOwnerByIndex",
      "outputs": [
        {
          "internalType": "uint256",
          "name": "",
          "type": "uint256"
        }
      ],
      "stateMutability": "view",
      "type": "function",
      "constant": true
    },
    {
      "inputs": [],
      "name": "tokenPrice",
      "outputs": [
        {
          "internalType": "uint256",
          "name": "",
          "type": "uint256"
        }
      ],
      "stateMutability": "view",
      "type": "function",
      "constant": true
    },
    {
      "inputs": [
        {
          "internalType": "uint256",
          "name": "tokenId",
          "type": "uint256"
        }
      ],
      "name": "tokenURI",
      "outputs": [
        {
          "internalType": "string",
          "name": "",
          "type": "string"
        }
      ],
      "stateMutability": "view",
      "type": "function",
      "constant": true
    },
    {
      "inputs": [],
      "name": "totalSupply",
      "outputs": [
        {
          "internalType": "uint256",
          "name": "",
          "type": "uint256"
        }
      ],
      "stateMutability": "view",
      "type": "function",
      "constant": true
    },
    {
      "inputs": [
        {
          "internalType": "address",
          "name": "from",
          "type": "address"
        },
        {
          "internalType": "address",
          "name": "to",
          "type": "address"
        },
        {
          "internalType": "uint256",
          "name": "tokenId",
          "type": "uint256"
        }
      ],
      "name": "transferFrom",
      "outputs": [],
      "stateMutability": "nonpayable",
      "type": "function"
    },
    {
      "inputs": [
        {
          "internalType": "string",
          "name": "_color",
          "type": "string"
        }
      ],
      "name": "mint",
      "outputs": [],
      "stateMutability": "payable",
      "type": "function",
      "payable": true
    }
  ],
  "bytecode": "0x60806040523480156200001157600080fd5b506040518060400160405280600b81526020017f436f6c6f72427562626c650000000000000000000000000000000000000000008152506040518060400160405280600481526020017f4342424200000000000000000000000000000000000000000000000000000000815250816000908051906020019062000096929190620000b8565b508060019080519060200190620000af929190620000b8565b505050620001cd565b828054620000c69062000168565b90600052602060002090601f016020900481019282620000ea576000855562000136565b82601f106200010557805160ff191683800117855562000136565b8280016001018555821562000136579182015b828111156200013557825182559160200191906001019062000118565b5b50905062000145919062000149565b5090565b5b80821115620001645760008160009055506001016200014a565b5090565b600060028204905060018216806200018157607f821691505b602082108114156200019857620001976200019e565b5b50919050565b7f4e487b7100000000000000000000000000000000000000000000000000000000600052602260045260246000fd5b61344180620001dd6000396000f3fe6080604052600436106101145760003560e01c80636352211e116100a0578063b88d4fde11610064578063b88d4fde146103d7578063bd11f69d14610400578063c87b56dd1461043d578063d85d3d271461047a578063e985e9c51461049657610114565b80636352211e146102de57806370a082311461031b5780637ff9b5961461035857806395d89b4114610383578063a22cb465146103ae57610114565b806318160ddd116100e757806318160ddd146101e757806323b872dd146102125780632f745c591461023b57806342842e0e146102785780634f6ccce7146102a157610114565b806301ffc9a71461011957806306fdde0314610156578063081812fc14610181578063095ea7b3146101be575b600080fd5b34801561012557600080fd5b50610140600480360381019061013b91906123be565b6104d3565b60405161014d9190612862565b60405180910390f35b34801561016257600080fd5b5061016b61054d565b604051610178919061287d565b60405180910390f35b34801561018d57600080fd5b506101a860048036038101906101a39190612451565b6105df565b6040516101b591906127fb565b60405180910390f35b3480156101ca57600080fd5b506101e560048036038101906101e09190612382565b610664565b005b3480156101f357600080fd5b506101fc61077c565b6040516102099190612adf565b60405180910390f35b34801561021e57600080fd5b506102396004803603810190610234919061227c565b610789565b005b34801561024757600080fd5b50610262600480360381019061025d9190612382565b6107e9565b60405161026f9190612adf565b60405180910390f35b34801561028457600080fd5b5061029f600480360381019061029a919061227c565b61088e565b005b3480156102ad57600080fd5b506102c860048036038101906102c39190612451565b6108ae565b6040516102d59190612adf565b60405180910390f35b3480156102ea57600080fd5b5061030560048036038101906103009190612451565b610945565b60405161031291906127fb565b60405180910390f35b34801561032757600080fd5b50610342600480360381019061033d9190612217565b6109f7565b60405161034f9190612adf565b60405180910390f35b34801561036457600080fd5b5061036d610aaf565b60405161037a9190612adf565b60405180910390f35b34801561038f57600080fd5b50610398610abb565b6040516103a5919061287d565b60405180910390f35b3480156103ba57600080fd5b506103d560048036038101906103d09190612346565b610b4d565b005b3480156103e357600080fd5b506103fe60048036038101906103f991906122cb565b610cce565b005b34801561040c57600080fd5b5061042760048036038101906104229190612451565b610d30565b604051610434919061287d565b60405180910390f35b34801561044957600080fd5b50610464600480360381019061045f9190612451565b610ddc565b604051610471919061287d565b60405180910390f35b610494600480360381019061048f9190612410565b610e83565b005b3480156104a257600080fd5b506104bd60048036038101906104b89190612240565b610fcb565b6040516104ca9190612862565b60405180910390f35b60007f780e9d63000000000000000000000000000000000000000000000000000000007bffffffffffffffffffffffffffffffffffffffffffffffffffffffff1916827bffffffffffffffffffffffffffffffffffffffffffffffffffffffff1916148061054657506105458261105f565b5b9050919050565b60606000805461055c90612d35565b80601f016020809104026020016040519081016040528092919081815260200182805461058890612d35565b80156105d55780601f106105aa576101008083540402835291602001916105d5565b820191906000526020600020905b8154815290600101906020018083116105b857829003601f168201915b5050505050905090565b60006105ea82611141565b610629576040517f08c379a0000000000000000000000000000000000000000000000000000000008152600401610620906129df565b60405180910390fd5b6004600083815260200190815260200160002060009054906101000a900473ffffffffffffffffffffffffffffffffffffffff169050919050565b600061066f82610945565b90508073ffffffffffffffffffffffffffffffffffffffff168373ffffffffffffffffffffffffffffffffffffffff1614156106e0576040517f08c379a00000000000000000000000000000000000000000000000000000000081526004016106d790612a5f565b60405180910390fd5b8073ffffffffffffffffffffffffffffffffffffffff166106ff6111ad565b73ffffffffffffffffffffffffffffffffffffffff16148061072e575061072d816107286111ad565b610fcb565b5b61076d576040517f08c379a00000000000000000000000000000000000000000000000000000000081526004016107649061295f565b60405180910390fd5b61077783836111b5565b505050565b6000600880549050905090565b61079a6107946111ad565b8261126e565b6107d9576040517f08c379a00000000000000000000000000000000000000000000000000000000081526004016107d090612a7f565b60405180910390fd5b6107e483838361134c565b505050565b60006107f4836109f7565b8210610835576040517f08c379a000000000000000000000000000000000000000000000000000000000815260040161082c9061289f565b60405180910390fd5b600660008473ffffffffffffffffffffffffffffffffffffffff1673ffffffffffffffffffffffffffffffffffffffff168152602001908152602001600020600083815260200190815260200160002054905092915050565b6108a983838360405180602001604052806000815250610cce565b505050565b60006108b861077c565b82106108f9576040517f08c379a00000000000000000000000000000000000000000000000000000000081526004016108f090612a9f565b60405180910390fd5b60088281548110610933577f4e487b7100000000000000000000000000000000000000000000000000000000600052603260045260246000fd5b90600052602060002001549050919050565b6000806002600084815260200190815260200160002060009054906101000a900473ffffffffffffffffffffffffffffffffffffffff169050600073ffffffffffffffffffffffffffffffffffffffff168173ffffffffffffffffffffffffffffffffffffffff1614156109ee576040517f08c379a00000000000000000000000000000000000000000000000000000000081526004016109e59061299f565b60405180910390fd5b80915050919050565b60008073ffffffffffffffffffffffffffffffffffffffff168273ffffffffffffffffffffffffffffffffffffffff161415610a68576040517f08c379a0000000000000000000000000000000000000000000000000000000008152600401610a5f9061297f565b60405180910390fd5b600360008373ffffffffffffffffffffffffffffffffffffffff1673ffffffffffffffffffffffffffffffffffffffff168152602001908152602001600020549050919050565b670de0b6b3a764000081565b606060018054610aca90612d35565b80601f0160208091040260200160405190810160405280929190818152602001828054610af690612d35565b8015610b435780601f10610b1857610100808354040283529160200191610b43565b820191906000526020600020905b815481529060010190602001808311610b2657829003601f168201915b5050505050905090565b610b556111ad565b73ffffffffffffffffffffffffffffffffffffffff168273ffffffffffffffffffffffffffffffffffffffff161415610bc3576040517f08c379a0000000000000000000000000000000000000000000000000000000008152600401610bba9061291f565b60405180910390fd5b8060056000610bd06111ad565b73ffffffffffffffffffffffffffffffffffffffff1673ffffffffffffffffffffffffffffffffffffffff16815260200190815260200160002060008473ffffffffffffffffffffffffffffffffffffffff1673ffffffffffffffffffffffffffffffffffffffff16815260200190815260200160002060006101000a81548160ff0219169083151502179055508173ffffffffffffffffffffffffffffffffffffffff16610c7d6111ad565b73ffffffffffffffffffffffffffffffffffffffff167f17307eab39ab6107e8899845ad3d59bd9653f200f220920489ca2b5937696c3183604051610cc29190612862565b60405180910390a35050565b610cdf610cd96111ad565b8361126e565b610d1e576040517f08c379a0000000000000000000000000000000000000000000000000000000008152600401610d1590612a7f565b60405180910390fd5b610d2a848484846115a8565b50505050565b600a8181548110610d4057600080fd5b906000526020600020016000915090508054610d5b90612d35565b80601f0160208091040260200160405190810160405280929190818152602001828054610d8790612d35565b8015610dd45780601f10610da957610100808354040283529160200191610dd4565b820191906000526020600020905b815481529060010190602001808311610db757829003601f168201915b505050505081565b6060610de782611141565b610e26576040517f08c379a0000000000000000000000000000000000000000000000000000000008152600401610e1d90612a3f565b60405180910390fd5b6000610e30611604565b90506000815111610e505760405180602001604052806000815250610e7b565b80610e5a8461161b565b604051602001610e6b9291906127d7565b6040516020818303038152906040525b915050919050565b670de0b6b3a7640000341015610ece576040517f08c379a0000000000000000000000000000000000000000000000000000000008152600401610ec5906129ff565b60405180910390fd5b60001515600b82604051610ee291906127c0565b908152602001604051809103902060009054906101000a900460ff16151514610f40576040517f08c379a0000000000000000000000000000000000000000000000000000000008152600401610f3790612abf565b60405180910390fd5b600a81908060018154018082558091505060019003906000526020600020016000909190919091509080519060200190610f7b92919061203b565b506001600b82604051610f8e91906127c0565b908152602001604051809103902060006101000a81548160ff0219169083151502179055506000600a805490509050610fc733826117c8565b5050565b6000600560008473ffffffffffffffffffffffffffffffffffffffff1673ffffffffffffffffffffffffffffffffffffffff16815260200190815260200160002060008373ffffffffffffffffffffffffffffffffffffffff1673ffffffffffffffffffffffffffffffffffffffff16815260200190815260200160002060009054906101000a900460ff16905092915050565b60007f80ac58cd000000000000000000000000000000000000000000000000000000007bffffffffffffffffffffffffffffffffffffffffffffffffffffffff1916827bffffffffffffffffffffffffffffffffffffffffffffffffffffffff1916148061112a57507f5b5e139f000000000000000000000000000000000000000000000000000000007bffffffffffffffffffffffffffffffffffffffffffffffffffffffff1916827bffffffffffffffffffffffffffffffffffffffffffffffffffffffff1916145b8061113a575061113982611996565b5b9050919050565b60008073ffffffffffffffffffffffffffffffffffffffff166002600084815260200190815260200160002060009054906101000a900473ffffffffffffffffffffffffffffffffffffffff1673ffffffffffffffffffffffffffffffffffffffff1614159050919050565b600033905090565b816004600083815260200190815260200160002060006101000a81548173ffffffffffffffffffffffffffffffffffffffff021916908373ffffffffffffffffffffffffffffffffffffffff160217905550808273ffffffffffffffffffffffffffffffffffffffff1661122883610945565b73ffffffffffffffffffffffffffffffffffffffff167f8c5be1e5ebec7d5bd14f71427d1e84f3dd0314c0f7b2291e5b200ac8c7c3b92560405160405180910390a45050565b600061127982611141565b6112b8576040517f08c379a00000000000000000000000000000000000000000000000000000000081526004016112af9061293f565b60405180910390fd5b60006112c383610945565b90508073ffffffffffffffffffffffffffffffffffffffff168473ffffffffffffffffffffffffffffffffffffffff16148061133257508373ffffffffffffffffffffffffffffffffffffffff1661131a846105df565b73ffffffffffffffffffffffffffffffffffffffff16145b8061134357506113428185610fcb565b5b91505092915050565b8273ffffffffffffffffffffffffffffffffffffffff1661136c82610945565b73ffffffffffffffffffffffffffffffffffffffff16146113c2576040517f08c379a00000000000000000000000000000000000000000000000000000000081526004016113b990612a1f565b60405180910390fd5b600073ffffffffffffffffffffffffffffffffffffffff168273ffffffffffffffffffffffffffffffffffffffff161415611432576040517f08c379a0000000000000000000000000000000000000000000000000000000008152600401611429906128ff565b60405180910390fd5b61143d838383611a00565b6114486000826111b5565b6001600360008573ffffffffffffffffffffffffffffffffffffffff1673ffffffffffffffffffffffffffffffffffffffff16815260200190815260200160002060008282546114989190612c4b565b925050819055506001600360008473ffffffffffffffffffffffffffffffffffffffff1673ffffffffffffffffffffffffffffffffffffffff16815260200190815260200160002060008282546114ef9190612bc4565b92505081905550816002600083815260200190815260200160002060006101000a81548173ffffffffffffffffffffffffffffffffffffffff021916908373ffffffffffffffffffffffffffffffffffffffff160217905550808273ffffffffffffffffffffffffffffffffffffffff168473ffffffffffffffffffffffffffffffffffffffff167fddf252ad1be2c89b69c2b068fc378daa952ba7f163c4a11628f55a4df523b3ef60405160405180910390a4505050565b6115b384848461134c565b6115bf84848484611b14565b6115fe576040517f08c379a00000000000000000000000000000000000000000000000000000000081526004016115f5906128bf565b60405180910390fd5b50505050565b606060405180602001604052806000815250905090565b60606000821415611663576040518060400160405280600181526020017f300000000000000000000000000000000000000000000000000000000000000081525090506117c3565b600082905060005b6000821461169557808061167e90612d98565b915050600a8261168e9190612c1a565b915061166b565b60008167ffffffffffffffff8111156116d7577f4e487b7100000000000000000000000000000000000000000000000000000000600052604160045260246000fd5b6040519080825280601f01601f1916602001820160405280156117095781602001600182028036833780820191505090505b5090505b600085146117bc576001826117229190612c4b565b9150600a856117319190612de1565b603061173d9190612bc4565b60f81b818381518110611779577f4e487b7100000000000000000000000000000000000000000000000000000000600052603260045260246000fd5b60200101907effffffffffffffffffffffffffffffffffffffffffffffffffffffffffffff1916908160001a905350600a856117b59190612c1a565b945061170d565b8093505050505b919050565b600073ffffffffffffffffffffffffffffffffffffffff168273ffffffffffffffffffffffffffffffffffffffff161415611838576040517f08c379a000000000000000000000000000000000000000000000000000000000815260040161182f906129bf565b60405180910390fd5b61184181611141565b15611881576040517f08c379a0000000000000000000000000000000000000000000000000000000008152600401611878906128df565b60405180910390fd5b61188d60008383611a00565b6001600360008473ffffffffffffffffffffffffffffffffffffffff1673ffffffffffffffffffffffffffffffffffffffff16815260200190815260200160002060008282546118dd9190612bc4565b92505081905550816002600083815260200190815260200160002060006101000a81548173ffffffffffffffffffffffffffffffffffffffff021916908373ffffffffffffffffffffffffffffffffffffffff160217905550808273ffffffffffffffffffffffffffffffffffffffff16600073ffffffffffffffffffffffffffffffffffffffff167fddf252ad1be2c89b69c2b068fc378daa952ba7f163c4a11628f55a4df523b3ef60405160405180910390a45050565b60007f01ffc9a7000000000000000000000000000000000000000000000000000000007bffffffffffffffffffffffffffffffffffffffffffffffffffffffff1916827bffffffffffffffffffffffffffffffffffffffffffffffffffffffff1916149050919050565b611a0b838383611cab565b600073ffffffffffffffffffffffffffffffffffffffff168373ffffffffffffffffffffffffffffffffffffffff161415611a4e57611a4981611cb0565b611a8d565b8173ffffffffffffffffffffffffffffffffffffffff168373ffffffffffffffffffffffffffffffffffffffff1614611a8c57611a8b8382611cf9565b5b5b600073ffffffffffffffffffffffffffffffffffffffff168273ffffffffffffffffffffffffffffffffffffffff161415611ad057611acb81611e66565b611b0f565b8273ffffffffffffffffffffffffffffffffffffffff168273ffffffffffffffffffffffffffffffffffffffff1614611b0e57611b0d8282611fa9565b5b5b505050565b6000611b358473ffffffffffffffffffffffffffffffffffffffff16612028565b15611c9e578373ffffffffffffffffffffffffffffffffffffffff1663150b7a02611b5e6111ad565b8786866040518563ffffffff1660e01b8152600401611b809493929190612816565b602060405180830381600087803b158015611b9a57600080fd5b505af1925050508015611bcb57506040513d601f19601f82011682018060405250810190611bc891906123e7565b60015b611c4e573d8060008114611bfb576040519150601f19603f3d011682016040523d82523d6000602084013e611c00565b606091505b50600081511415611c46576040517f08c379a0000000000000000000000000000000000000000000000000000000008152600401611c3d906128bf565b60405180910390fd5b805181602001fd5b63150b7a0260e01b7bffffffffffffffffffffffffffffffffffffffffffffffffffffffff1916817bffffffffffffffffffffffffffffffffffffffffffffffffffffffff191614915050611ca3565b600190505b949350505050565b505050565b6008805490506009600083815260200190815260200160002081905550600881908060018154018082558091505060019003906000526020600020016000909190919091505550565b60006001611d06846109f7565b611d109190612c4b565b9050600060076000848152602001908152602001600020549050818114611df5576000600660008673ffffffffffffffffffffffffffffffffffffffff1673ffffffffffffffffffffffffffffffffffffffff168152602001908152602001600020600084815260200190815260200160002054905080600660008773ffffffffffffffffffffffffffffffffffffffff1673ffffffffffffffffffffffffffffffffffffffff168152602001908152602001600020600084815260200190815260200160002081905550816007600083815260200190815260200160002081905550505b6007600084815260200190815260200160002060009055600660008573ffffffffffffffffffffffffffffffffffffffff1673ffffffffffffffffffffffffffffffffffffffff16815260200190815260200160002060008381526020019081526020016000206000905550505050565b60006001600880549050611e7a9190612c4b565b9050600060096000848152602001908152602001600020549050600060088381548110611ed0577f4e487b7100000000000000000000000000000000000000000000000000000000600052603260045260246000fd5b906000526020600020015490508060088381548110611f18577f4e487b7100000000000000000000000000000000000000000000000000000000600052603260045260246000fd5b906000526020600020018190555081600960008381526020019081526020016000208190555060096000858152602001908152602001600020600090556008805480611f8d577f4e487b7100000000000000000000000000000000000000000000000000000000600052603160045260246000fd5b6001900381819060005260206000200160009055905550505050565b6000611fb4836109f7565b905081600660008573ffffffffffffffffffffffffffffffffffffffff1673ffffffffffffffffffffffffffffffffffffffff168152602001908152602001600020600083815260200190815260200160002081905550806007600084815260200190815260200160002081905550505050565b600080823b905060008111915050919050565b82805461204790612d35565b90600052602060002090601f01602090048101928261206957600085556120b0565b82601f1061208257805160ff19168380011785556120b0565b828001600101855582156120b0579182015b828111156120af578251825591602001919060010190612094565b5b5090506120bd91906120c1565b5090565b5b808211156120da5760008160009055506001016120c2565b5090565b60006120f16120ec84612b1f565b612afa565b90508281526020810184848401111561210957600080fd5b612114848285612cf3565b509392505050565b600061212f61212a84612b50565b612afa565b90508281526020810184848401111561214757600080fd5b612152848285612cf3565b509392505050565b600081359050612169816133af565b92915050565b60008135905061217e816133c6565b92915050565b600081359050612193816133dd565b92915050565b6000815190506121a8816133dd565b92915050565b600082601f8301126121bf57600080fd5b81356121cf8482602086016120de565b91505092915050565b600082601f8301126121e957600080fd5b81356121f984826020860161211c565b91505092915050565b600081359050612211816133f4565b92915050565b60006020828403121561222957600080fd5b60006122378482850161215a565b91505092915050565b6000806040838503121561225357600080fd5b60006122618582860161215a565b92505060206122728582860161215a565b9150509250929050565b60008060006060848603121561229157600080fd5b600061229f8682870161215a565b93505060206122b08682870161215a565b92505060406122c186828701612202565b9150509250925092565b600080600080608085870312156122e157600080fd5b60006122ef8782880161215a565b94505060206123008782880161215a565b935050604061231187828801612202565b925050606085013567ffffffffffffffff81111561232e57600080fd5b61233a878288016121ae565b91505092959194509250565b6000806040838503121561235957600080fd5b60006123678582860161215a565b92505060206123788582860161216f565b9150509250929050565b6000806040838503121561239557600080fd5b60006123a38582860161215a565b92505060206123b485828601612202565b9150509250929050565b6000602082840312156123d057600080fd5b60006123de84828501612184565b91505092915050565b6000602082840312156123f957600080fd5b600061240784828501612199565b91505092915050565b60006020828403121561242257600080fd5b600082013567ffffffffffffffff81111561243c57600080fd5b612448848285016121d8565b91505092915050565b60006020828403121561246357600080fd5b600061247184828501612202565b91505092915050565b61248381612c7f565b82525050565b61249281612c91565b82525050565b60006124a382612b81565b6124ad8185612b97565b93506124bd818560208601612d02565b6124c681612ece565b840191505092915050565b60006124dc82612b8c565b6124e68185612ba8565b93506124f6818560208601612d02565b6124ff81612ece565b840191505092915050565b600061251582612b8c565b61251f8185612bb9565b935061252f818560208601612d02565b80840191505092915050565b6000612548602b83612ba8565b915061255382612edf565b604082019050919050565b600061256b603283612ba8565b915061257682612f2e565b604082019050919050565b600061258e601c83612ba8565b915061259982612f7d565b602082019050919050565b60006125b1602483612ba8565b91506125bc82612fa6565b604082019050919050565b60006125d4601983612ba8565b91506125df82612ff5565b602082019050919050565b60006125f7602c83612ba8565b91506126028261301e565b604082019050919050565b600061261a603883612ba8565b91506126258261306d565b604082019050919050565b600061263d602a83612ba8565b9150612648826130bc565b604082019050919050565b6000612660602983612ba8565b915061266b8261310b565b604082019050919050565b6000612683602083612ba8565b915061268e8261315a565b602082019050919050565b60006126a6602c83612ba8565b91506126b182613183565b604082019050919050565b60006126c9601f83612ba8565b91506126d4826131d2565b602082019050919050565b60006126ec602983612ba8565b91506126f7826131fb565b604082019050919050565b600061270f602f83612ba8565b915061271a8261324a565b604082019050919050565b6000612732602183612ba8565b915061273d82613299565b604082019050919050565b6000612755603183612ba8565b9150612760826132e8565b604082019050919050565b6000612778602c83612ba8565b915061278382613337565b604082019050919050565b600061279b601483612ba8565b91506127a682613386565b602082019050919050565b6127ba81612ce9565b82525050565b60006127cc828461250a565b915081905092915050565b60006127e3828561250a565b91506127ef828461250a565b91508190509392505050565b6000602082019050612810600083018461247a565b92915050565b600060808201905061282b600083018761247a565b612838602083018661247a565b61284560408301856127b1565b81810360608301526128578184612498565b905095945050505050565b60006020820190506128776000830184612489565b92915050565b6000602082019050818103600083015261289781846124d1565b905092915050565b600060208201905081810360008301526128b88161253b565b9050919050565b600060208201905081810360008301526128d88161255e565b9050919050565b600060208201905081810360008301526128f881612581565b9050919050565b60006020820190508181036000830152612918816125a4565b9050919050565b60006020820190508181036000830152612938816125c7565b9050919050565b60006020820190508181036000830152612958816125ea565b9050919050565b600060208201905081810360008301526129788161260d565b9050919050565b6000602082019050818103600083015261299881612630565b9050919050565b600060208201905081810360008301526129b881612653565b9050919050565b600060208201905081810360008301526129d881612676565b9050919050565b600060208201905081810360008301526129f881612699565b9050919050565b60006020820190508181036000830152612a18816126bc565b9050919050565b60006020820190508181036000830152612a38816126df565b9050919050565b60006020820190508181036000830152612a5881612702565b9050919050565b60006020820190508181036000830152612a7881612725565b9050919050565b60006020820190508181036000830152612a9881612748565b9050919050565b60006020820190508181036000830152612ab88161276b565b9050919050565b60006020820190508181036000830152612ad88161278e565b9050919050565b6000602082019050612af460008301846127b1565b92915050565b6000612b04612b15565b9050612b108282612d67565b919050565b6000604051905090565b600067ffffffffffffffff821115612b3a57612b39612e9f565b5b612b4382612ece565b9050602081019050919050565b600067ffffffffffffffff821115612b6b57612b6a612e9f565b5b612b7482612ece565b9050602081019050919050565b600081519050919050565b600081519050919050565b600082825260208201905092915050565b600082825260208201905092915050565b600081905092915050565b6000612bcf82612ce9565b9150612bda83612ce9565b9250827fffffffffffffffffffffffffffffffffffffffffffffffffffffffffffffffff03821115612c0f57612c0e612e12565b5b828201905092915050565b6000612c2582612ce9565b9150612c3083612ce9565b925082612c4057612c3f612e41565b5b828204905092915050565b6000612c5682612ce9565b9150612c6183612ce9565b925082821015612c7457612c73612e12565b5b828203905092915050565b6000612c8a82612cc9565b9050919050565b60008115159050919050565b60007fffffffff0000000000000000000000000000000000000000000000000000000082169050919050565b600073ffffffffffffffffffffffffffffffffffffffff82169050919050565b6000819050919050565b82818337600083830152505050565b60005b83811015612d20578082015181840152602081019050612d05565b83811115612d2f576000848401525b50505050565b60006002820490506001821680612d4d57607f821691505b60208210811415612d6157612d60612e70565b5b50919050565b612d7082612ece565b810181811067ffffffffffffffff82111715612d8f57612d8e612e9f565b5b80604052505050565b6000612da382612ce9565b91507fffffffffffffffffffffffffffffffffffffffffffffffffffffffffffffffff821415612dd657612dd5612e12565b5b600182019050919050565b6000612dec82612ce9565b9150612df783612ce9565b925082612e0757612e06612e41565b5b828206905092915050565b7f4e487b7100000000000000000000000000000000000000000000000000000000600052601160045260246000fd5b7f4e487b7100000000000000000000000000000000000000000000000000000000600052601260045260246000fd5b7f4e487b7100000000000000000000000000000000000000000000000000000000600052602260045260246000fd5b7f4e487b7100000000000000000000000000000000000000000000000000000000600052604160045260246000fd5b6000601f19601f8301169050919050565b7f455243373231456e756d657261626c653a206f776e657220696e646578206f7560008201527f74206f6620626f756e6473000000000000000000000000000000000000000000602082015250565b7f4552433732313a207472616e7366657220746f206e6f6e20455243373231526560008201527f63656976657220696d706c656d656e7465720000000000000000000000000000602082015250565b7f4552433732313a20746f6b656e20616c7265616479206d696e74656400000000600082015250565b7f4552433732313a207472616e7366657220746f20746865207a65726f2061646460008201527f7265737300000000000000000000000000000000000000000000000000000000602082015250565b7f4552433732313a20617070726f766520746f2063616c6c657200000000000000600082015250565b7f4552433732313a206f70657261746f7220717565727920666f72206e6f6e657860008201527f697374656e7420746f6b656e0000000000000000000000000000000000000000602082015250565b7f4552433732313a20617070726f76652063616c6c6572206973206e6f74206f7760008201527f6e6572206e6f7220617070726f76656420666f7220616c6c0000000000000000602082015250565b7f4552433732313a2062616c616e636520717565727920666f7220746865207a6560008201527f726f206164647265737300000000000000000000000000000000000000000000602082015250565b7f4552433732313a206f776e657220717565727920666f72206e6f6e657869737460008201527f656e7420746f6b656e0000000000000000000000000000000000000000000000602082015250565b7f4552433732313a206d696e7420746f20746865207a65726f2061646472657373600082015250565b7f4552433732313a20617070726f76656420717565727920666f72206e6f6e657860008201527f697374656e7420746f6b656e0000000000000000000000000000000000000000602082015250565b7f6e6f7420656e6f756768742046554e445320686173206265656e2073656e7400600082015250565b7f4552433732313a207472616e73666572206f6620746f6b656e2074686174206960008201527f73206e6f74206f776e0000000000000000000000000000000000000000000000602082015250565b7f4552433732314d657461646174613a2055524920717565727920666f72206e6f60008201527f6e6578697374656e7420746f6b656e0000000000000000000000000000000000602082015250565b7f4552433732313a20617070726f76616c20746f2063757272656e74206f776e6560008201527f7200000000000000000000000000000000000000000000000000000000000000602082015250565b7f4552433732313a207472616e736665722063616c6c6572206973206e6f74206f60008201527f776e6572206e6f7220617070726f766564000000000000000000000000000000602082015250565b7f455243373231456e756d657261626c653a20676c6f62616c20696e646578206f60008201527f7574206f6620626f756e64730000000000000000000000000000000000000000602082015250565b7f636f6c6f7220616c726561647920657869737473000000000000000000000000600082015250565b6133b881612c7f565b81146133c357600080fd5b50565b6133cf81612c91565b81146133da57600080fd5b50565b6133e681612c9d565b81146133f157600080fd5b50565b6133fd81612ce9565b811461340857600080fd5b5056fea26469706673582212204d76b8a74e6d97b392f2bbd7f1c634508dfa76f04a3c4561e637a51012d4d73b64736f6c63430008040033",
  "immutableReferences": {},
  "source": "// SPDX-License-Identifier: MIT\r\npragma solidity >=0.8.0;\r\n\r\nimport \"@openzeppelin/contracts/token/ERC721/extensions/ERC721Enumerable.sol\";\r\n\r\ncontract ColorBubble is ERC721Enumerable\r\n{\r\n\t// var\r\n\tstring [] public colors;\r\n\tmapping (string => bool) private _colorExists;\r\n\tuint constant public tokenPrice = 1000000000000000000;\r\n\r\n\r\n\t// modifiers\r\n\tmodifier PriceFit\r\n\t{\r\n\t\trequire (msg.value >= tokenPrice, \"not enought FUNDS has been sent\");\r\n\t\t_;\r\n\t}\r\n\r\n\r\n\t// construct\r\n\tconstructor ()\r\n\tERC721 ('ColorBubble', 'CBBB')\r\n\t{\r\n\t\t\r\n\t}\r\n\r\n\r\n\t// create token\r\n\tfunction mint\r\n\t(\r\n\t\tstring memory _color\r\n\t)\r\n\t\tpublic\r\n\t\tpayable\r\n\t\tPriceFit\r\n\t{\r\n\t\t// check if this color is not existed yet\r\n\t\trequire(_colorExists[_color] == false, \"color already exists\");\r\n\r\n\t\t// save color\r\n\t\tcolors.push(_color);\r\n\t\t_colorExists[_color] = true;\r\n\r\n\t\t// create token ID\r\n\t\tuint _id = colors.length;\r\n\r\n\t\t// mint token\r\n\t\t_mint(msg.sender, _id);\r\n\t}\r\n}",
  "sourcePath": "G:/solidity/sol_5_ERC_721/#src/contracts/ColorBubble.sol",
  "compiler": {
    "name": "solc",
    "version": "0.8.4+commit.c7e474f2.Emscripten.clang"
  },
  "schemaVersion": "3.4.1",
  "updatedAt": "2021-05-25T11:20:32.901Z",
  "networkType": "ethereum",
  "devdoc": {
    "kind": "dev",
    "methods": {
      "approve(address,uint256)": {
        "details": "See {IERC721-approve}."
      },
      "balanceOf(address)": {
        "details": "See {IERC721-balanceOf}."
      },
      "getApproved(uint256)": {
        "details": "See {IERC721-getApproved}."
      },
      "isApprovedForAll(address,address)": {
        "details": "See {IERC721-isApprovedForAll}."
      },
      "name()": {
        "details": "See {IERC721Metadata-name}."
      },
      "ownerOf(uint256)": {
        "details": "See {IERC721-ownerOf}."
      },
      "safeTransferFrom(address,address,uint256)": {
        "details": "See {IERC721-safeTransferFrom}."
      },
      "safeTransferFrom(address,address,uint256,bytes)": {
        "details": "See {IERC721-safeTransferFrom}."
      },
      "setApprovalForAll(address,bool)": {
        "details": "See {IERC721-setApprovalForAll}."
      },
      "supportsInterface(bytes4)": {
        "details": "See {IERC165-supportsInterface}."
      },
      "symbol()": {
        "details": "See {IERC721Metadata-symbol}."
      },
      "tokenByIndex(uint256)": {
        "details": "See {IERC721Enumerable-tokenByIndex}."
      },
      "tokenOfOwnerByIndex(address,uint256)": {
        "details": "See {IERC721Enumerable-tokenOfOwnerByIndex}."
      },
      "tokenURI(uint256)": {
        "details": "See {IERC721Metadata-tokenURI}."
      },
      "totalSupply()": {
        "details": "See {IERC721Enumerable-totalSupply}."
      },
      "transferFrom(address,address,uint256)": {
        "details": "See {IERC721-transferFrom}."
      }
    },
    "version": 1
  },
  "userdoc": {
    "kind": "user",
    "methods": {},
    "version": 1
  }
}