{
  "contractName": "ColorBubble",
  "abi": [
    {
      "inputs": [],
      "stateMutability": "nonpayable",
      "type": "constructor"
    },
    {
      "anonymous": false,
      "inputs": [
        {
          "indexed": true,
          "internalType": "address",
          "name": "owner",
          "type": "address"
        },
        {
          "indexed": true,
          "internalType": "address",
          "name": "approved",
          "type": "address"
        },
        {
          "indexed": true,
          "internalType": "uint256",
          "name": "tokenId",
          "type": "uint256"
        }
      ],
      "name": "Approval",
      "type": "event"
    },
    {
      "anonymous": false,
      "inputs": [
        {
          "indexed": true,
          "internalType": "address",
          "name": "owner",
          "type": "address"
        },
        {
          "indexed": true,
          "internalType": "address",
          "name": "operator",
          "type": "address"
        },
        {
          "indexed": false,
          "internalType": "bool",
          "name": "approved",
          "type": "bool"
        }
      ],
      "name": "ApprovalForAll",
      "type": "event"
    },
    {
      "anonymous": false,
      "inputs": [
        {
          "indexed": true,
          "internalType": "address",
          "name": "from",
          "type": "address"
        },
        {
          "indexed": true,
          "internalType": "address",
          "name": "to",
          "type": "address"
        },
        {
          "indexed": true,
          "internalType": "uint256",
          "name": "tokenId",
          "type": "uint256"
        }
      ],
      "name": "Transfer",
      "type": "event"
    },
    {
      "inputs": [
        {
          "internalType": "address",
          "name": "to",
          "type": "address"
        },
        {
          "internalType": "uint256",
          "name": "tokenId",
          "type": "uint256"
        }
      ],
      "name": "approve",
      "outputs": [],
      "stateMutability": "nonpayable",
      "type": "function"
    },
    {
      "inputs": [
        {
          "internalType": "address",
          "name": "owner",
          "type": "address"
        }
      ],
      "name": "balanceOf",
      "outputs": [
        {
          "internalType": "uint256",
          "name": "",
          "type": "uint256"
        }
      ],
      "stateMutability": "view",
      "type": "function",
      "constant": true
    },
    {
      "inputs": [
        {
          "internalType": "uint256",
          "name": "",
          "type": "uint256"
        }
      ],
      "name": "colors",
      "outputs": [
        {
          "internalType": "string",
          "name": "",
          "type": "string"
        }
      ],
      "stateMutability": "view",
      "type": "function",
      "constant": true
    },
    {
      "inputs": [],
      "name": "creator",
      "outputs": [
        {
          "internalType": "address",
          "name": "",
          "type": "address"
        }
      ],
      "stateMutability": "view",
      "type": "function",
      "constant": true
    },
    {
      "inputs": [
        {
          "internalType": "uint256",
          "name": "tokenId",
          "type": "uint256"
        }
      ],
      "name": "getApproved",
      "outputs": [
        {
          "internalType": "address",
          "name": "",
          "type": "address"
        }
      ],
      "stateMutability": "view",
      "type": "function",
      "constant": true
    },
    {
      "inputs": [
        {
          "internalType": "address",
          "name": "owner",
          "type": "address"
        },
        {
          "internalType": "address",
          "name": "operator",
          "type": "address"
        }
      ],
      "name": "isApprovedForAll",
      "outputs": [
        {
          "internalType": "bool",
          "name": "",
          "type": "bool"
        }
      ],
      "stateMutability": "view",
      "type": "function",
      "constant": true
    },
    {
      "inputs": [],
      "name": "name",
      "outputs": [
        {
          "internalType": "string",
          "name": "",
          "type": "string"
        }
      ],
      "stateMutability": "view",
      "type": "function",
      "constant": true
    },
    {
      "inputs": [
        {
          "internalType": "uint256",
          "name": "tokenId",
          "type": "uint256"
        }
      ],
      "name": "ownerOf",
      "outputs": [
        {
          "internalType": "address",
          "name": "",
          "type": "address"
        }
      ],
      "stateMutability": "view",
      "type": "function",
      "constant": true
    },
    {
      "inputs": [
        {
          "internalType": "address",
          "name": "from",
          "type": "address"
        },
        {
          "internalType": "address",
          "name": "to",
          "type": "address"
        },
        {
          "internalType": "uint256",
          "name": "tokenId",
          "type": "uint256"
        }
      ],
      "name": "safeTransferFrom",
      "outputs": [],
      "stateMutability": "nonpayable",
      "type": "function"
    },
    {
      "inputs": [
        {
          "internalType": "address",
          "name": "from",
          "type": "address"
        },
        {
          "internalType": "address",
          "name": "to",
          "type": "address"
        },
        {
          "internalType": "uint256",
          "name": "tokenId",
          "type": "uint256"
        },
        {
          "internalType": "bytes",
          "name": "_data",
          "type": "bytes"
        }
      ],
      "name": "safeTransferFrom",
      "outputs": [],
      "stateMutability": "nonpayable",
      "type": "function"
    },
    {
      "inputs": [
        {
          "internalType": "address",
          "name": "operator",
          "type": "address"
        },
        {
          "internalType": "bool",
          "name": "approved",
          "type": "bool"
        }
      ],
      "name": "setApprovalForAll",
      "outputs": [],
      "stateMutability": "nonpayable",
      "type": "function"
    },
    {
      "inputs": [
        {
          "internalType": "bytes4",
          "name": "interfaceId",
          "type": "bytes4"
        }
      ],
      "name": "supportsInterface",
      "outputs": [
        {
          "internalType": "bool",
          "name": "",
          "type": "bool"
        }
      ],
      "stateMutability": "view",
      "type": "function",
      "constant": true
    },
    {
      "inputs": [],
      "name": "symbol",
      "outputs": [
        {
          "internalType": "string",
          "name": "",
          "type": "string"
        }
      ],
      "stateMutability": "view",
      "type": "function",
      "constant": true
    },
    {
      "inputs": [
        {
          "internalType": "uint256",
          "name": "index",
          "type": "uint256"
        }
      ],
      "name": "tokenByIndex",
      "outputs": [
        {
          "internalType": "uint256",
          "name": "",
          "type": "uint256"
        }
      ],
      "stateMutability": "view",
      "type": "function",
      "constant": true
    },
    {
      "inputs": [
        {
          "internalType": "address",
          "name": "owner",
          "type": "address"
        },
        {
          "internalType": "uint256",
          "name": "index",
          "type": "uint256"
        }
      ],
      "name": "tokenOfOwnerByIndex",
      "outputs": [
        {
          "internalType": "uint256",
          "name": "",
          "type": "uint256"
        }
      ],
      "stateMutability": "view",
      "type": "function",
      "constant": true
    },
    {
      "inputs": [],
      "name": "tokenPrice",
      "outputs": [
        {
          "internalType": "uint256",
          "name": "",
          "type": "uint256"
        }
      ],
      "stateMutability": "view",
      "type": "function",
      "constant": true
    },
    {
      "inputs": [
        {
          "internalType": "uint256",
          "name": "tokenId",
          "type": "uint256"
        }
      ],
      "name": "tokenURI",
      "outputs": [
        {
          "internalType": "string",
          "name": "",
          "type": "string"
        }
      ],
      "stateMutability": "view",
      "type": "function",
      "constant": true
    },
    {
      "inputs": [],
      "name": "totalSupply",
      "outputs": [
        {
          "internalType": "uint256",
          "name": "",
          "type": "uint256"
        }
      ],
      "stateMutability": "view",
      "type": "function",
      "constant": true
    },
    {
      "inputs": [
        {
          "internalType": "address",
          "name": "from",
          "type": "address"
        },
        {
          "internalType": "address",
          "name": "to",
          "type": "address"
        },
        {
          "internalType": "uint256",
          "name": "tokenId",
          "type": "uint256"
        }
      ],
      "name": "transferFrom",
      "outputs": [],
      "stateMutability": "nonpayable",
      "type": "function"
    },
    {
      "stateMutability": "payable",
      "type": "receive",
      "payable": true
    },
    {
      "inputs": [
        {
          "internalType": "string",
          "name": "_color",
          "type": "string"
        }
      ],
      "name": "mint",
      "outputs": [],
      "stateMutability": "payable",
      "type": "function",
      "payable": true
    },
    {
      "inputs": [
        {
          "internalType": "string",
          "name": "_color",
          "type": "string"
        }
      ],
      "name": "await",
      "outputs": [],
      "stateMutability": "nonpayable",
      "type": "function"
    },
    {
      "inputs": [],
      "name": "checkAwait",
      "outputs": [
        {
          "internalType": "string",
          "name": "",
          "type": "string"
        }
      ],
      "stateMutability": "view",
      "type": "function",
      "constant": true
    },
    {
      "inputs": [],
      "name": "emulateReceive",
      "outputs": [],
      "stateMutability": "nonpayable",
      "type": "function"
    }
  ],
  "bytecode": "0x60806040523480156200001157600080fd5b506040518060400160405280600b81526020017f436f6c6f72427562626c650000000000000000000000000000000000000000008152506040518060400160405280600481526020017f4342424200000000000000000000000000000000000000000000000000000000815250816000908051906020019062000096929190620000f9565b508060019080519060200190620000af929190620000f9565b50505033600a60006101000a81548173ffffffffffffffffffffffffffffffffffffffff021916908373ffffffffffffffffffffffffffffffffffffffff1602179055506200020e565b8280546200010790620001a9565b90600052602060002090601f0160209004810192826200012b576000855562000177565b82601f106200014657805160ff191683800117855562000177565b8280016001018555821562000177579182015b828111156200017657825182559160200191906001019062000159565b5b5090506200018691906200018a565b5090565b5b80821115620001a55760008160009055506001016200018b565b5090565b60006002820490506001821680620001c257607f821691505b60208210811415620001d957620001d8620001df565b5b50919050565b7f4e487b7100000000000000000000000000000000000000000000000000000000600052602260045260246000fd5b613c09806200021e6000396000f3fe6080604052600436106101445760003560e01c80636352211e116100b6578063b88d4fde1161006f578063b88d4fde146106b1578063bd11f69d146106da578063c87b56dd14610717578063d85d3d2714610754578063d878acb314610770578063e985e9c5146107875761036f565b80636352211e1461058d57806370a08231146105ca5780637ff9b5961461060757806395d89b41146106325780639f7c696d1461065d578063a22cb465146106885761036f565b80630de65350116101085780630de653501461046d57806318160ddd1461049657806323b872dd146104c15780632f745c59146104ea57806342842e0e146105275780634f6ccce7146105505761036f565b806301ffc9a71461037457806302d05d3f146103b157806306fdde03146103dc578063081812fc14610407578063095ea7b3146104445761036f565b3661036f57600073ffffffffffffffffffffffffffffffffffffffff163373ffffffffffffffffffffffffffffffffffffffff1614156101b9576040517f08c379a00000000000000000000000000000000000000000000000000000000081526004016101b090612fc6565b60405180910390fd5b670de0b6b3a7640000341015610204576040517f08c379a00000000000000000000000000000000000000000000000000000000081526004016101fb90612f86565b60405180910390fd5b60011515600c60003373ffffffffffffffffffffffffffffffffffffffff1673ffffffffffffffffffffffffffffffffffffffff16815260200190815260200160002060010160009054906101000a900460ff1615151461029a576040517f08c379a000000000000000000000000000000000000000000000000000000000815260040161029190613186565b60405180910390fd5b61036d600c60003373ffffffffffffffffffffffffffffffffffffffff1673ffffffffffffffffffffffffffffffffffffffff16815260200190815260200160002060000180546102ea9061345c565b80601f01602080910402602001604051908101604052809291908181526020018280546103169061345c565b80156103635780601f1061033857610100808354040283529160200191610363565b820191906000526020600020905b81548152906001019060200180831161034657829003601f168201915b50505050506107c4565b005b600080fd5b34801561038057600080fd5b5061039b60048036038101906103969190612a1c565b61090c565b6040516103a89190612f29565b60405180910390f35b3480156103bd57600080fd5b506103c6610986565b6040516103d39190612ec2565b60405180910390f35b3480156103e857600080fd5b506103f16109ac565b6040516103fe9190612f44565b60405180910390f35b34801561041357600080fd5b5061042e60048036038101906104299190612aaf565b610a3e565b60405161043b9190612ec2565b60405180910390f35b34801561045057600080fd5b5061046b600480360381019061046691906129e0565b610ac3565b005b34801561047957600080fd5b50610494600480360381019061048f9190612a6e565b610bdb565b005b3480156104a257600080fd5b506104ab610c75565b6040516104b89190613206565b60405180910390f35b3480156104cd57600080fd5b506104e860048036038101906104e391906128da565b610c82565b005b3480156104f657600080fd5b50610511600480360381019061050c91906129e0565b610ce2565b60405161051e9190613206565b60405180910390f35b34801561053357600080fd5b5061054e600480360381019061054991906128da565b610d87565b005b34801561055c57600080fd5b5061057760048036038101906105729190612aaf565b610da7565b6040516105849190613206565b60405180910390f35b34801561059957600080fd5b506105b460048036038101906105af9190612aaf565b610e3e565b6040516105c19190612ec2565b60405180910390f35b3480156105d657600080fd5b506105f160048036038101906105ec9190612875565b610ef0565b6040516105fe9190613206565b60405180910390f35b34801561061357600080fd5b5061061c610fa8565b6040516106299190613206565b60405180910390f35b34801561063e57600080fd5b50610647610fb4565b6040516106549190612f44565b60405180910390f35b34801561066957600080fd5b50610672611046565b60405161067f9190612f44565b60405180910390f35b34801561069457600080fd5b506106af60048036038101906106aa91906129a4565b611118565b005b3480156106bd57600080fd5b506106d860048036038101906106d39190612929565b611299565b005b3480156106e657600080fd5b5061070160048036038101906106fc9190612aaf565b6112fb565b60405161070e9190612f44565b60405180910390f35b34801561072357600080fd5b5061073e60048036038101906107399190612aaf565b6113a7565b60405161074b9190612f44565b60405180910390f35b61076e60048036038101906107699190612a6e565b6107c4565b005b34801561077c57600080fd5b5061078561144e565b005b34801561079357600080fd5b506107ae60048036038101906107a9919061289e565b611629565b6040516107bb9190612f29565b60405180910390f35b670de0b6b3a764000034101561080f576040517f08c379a000000000000000000000000000000000000000000000000000000000815260040161080690613106565b60405180910390fd5b60001515600d826040516108239190612e87565b908152602001604051809103902060009054906101000a900460ff16151514610881576040517f08c379a0000000000000000000000000000000000000000000000000000000008152600401610878906131e6565b60405180910390fd5b600b819080600181540180825580915050600190039060005260206000200160009091909190915090805190602001906108bc929190612699565b506001600d826040516108cf9190612e87565b908152602001604051809103902060006101000a81548160ff0219169083151502179055506000600b80549050905061090833826116bd565b5050565b60007f780e9d63000000000000000000000000000000000000000000000000000000007bffffffffffffffffffffffffffffffffffffffffffffffffffffffff1916827bffffffffffffffffffffffffffffffffffffffffffffffffffffffff1916148061097f575061097e8261188b565b5b9050919050565b600a60009054906101000a900473ffffffffffffffffffffffffffffffffffffffff1681565b6060600080546109bb9061345c565b80601f01602080910402602001604051908101604052809291908181526020018280546109e79061345c565b8015610a345780601f10610a0957610100808354040283529160200191610a34565b820191906000526020600020905b815481529060010190602001808311610a1757829003601f168201915b5050505050905090565b6000610a498261196d565b610a88576040517f08c379a0000000000000000000000000000000000000000000000000000000008152600401610a7f906130e6565b60405180910390fd5b6004600083815260200190815260200160002060009054906101000a900473ffffffffffffffffffffffffffffffffffffffff169050919050565b6000610ace82610e3e565b90508073ffffffffffffffffffffffffffffffffffffffff168373ffffffffffffffffffffffffffffffffffffffff161415610b3f576040517f08c379a0000000000000000000000000000000000000000000000000000000008152600401610b3690613166565b60405180910390fd5b8073ffffffffffffffffffffffffffffffffffffffff16610b5e6119d9565b73ffffffffffffffffffffffffffffffffffffffff161480610b8d5750610b8c81610b876119d9565b611629565b5b610bcc576040517f08c379a0000000000000000000000000000000000000000000000000000000008152600401610bc390613066565b60405180910390fd5b610bd683836119e1565b505050565b604051806040016040528082815260200160011515815250600c60003373ffffffffffffffffffffffffffffffffffffffff1673ffffffffffffffffffffffffffffffffffffffff1681526020019081526020016000206000820151816000019080519060200190610c4e929190612699565b5060208201518160010160006101000a81548160ff02191690831515021790555090505050565b6000600880549050905090565b610c93610c8d6119d9565b82611a9a565b610cd2576040517f08c379a0000000000000000000000000000000000000000000000000000000008152600401610cc9906131a6565b60405180910390fd5b610cdd838383611b78565b505050565b6000610ced83610ef0565b8210610d2e576040517f08c379a0000000000000000000000000000000000000000000000000000000008152600401610d2590612f66565b60405180910390fd5b600660008473ffffffffffffffffffffffffffffffffffffffff1673ffffffffffffffffffffffffffffffffffffffff168152602001908152602001600020600083815260200190815260200160002054905092915050565b610da283838360405180602001604052806000815250611299565b505050565b6000610db1610c75565b8210610df2576040517f08c379a0000000000000000000000000000000000000000000000000000000008152600401610de9906131c6565b60405180910390fd5b60088281548110610e2c577f4e487b7100000000000000000000000000000000000000000000000000000000600052603260045260246000fd5b90600052602060002001549050919050565b6000806002600084815260200190815260200160002060009054906101000a900473ffffffffffffffffffffffffffffffffffffffff169050600073ffffffffffffffffffffffffffffffffffffffff168173ffffffffffffffffffffffffffffffffffffffff161415610ee7576040517f08c379a0000000000000000000000000000000000000000000000000000000008152600401610ede906130a6565b60405180910390fd5b80915050919050565b60008073ffffffffffffffffffffffffffffffffffffffff168273ffffffffffffffffffffffffffffffffffffffff161415610f61576040517f08c379a0000000000000000000000000000000000000000000000000000000008152600401610f5890613086565b60405180910390fd5b600360008373ffffffffffffffffffffffffffffffffffffffff1673ffffffffffffffffffffffffffffffffffffffff168152602001908152602001600020549050919050565b670de0b6b3a764000081565b606060018054610fc39061345c565b80601f0160208091040260200160405190810160405280929190818152602001828054610fef9061345c565b801561103c5780601f106110115761010080835404028352916020019161103c565b820191906000526020600020905b81548152906001019060200180831161101f57829003601f168201915b5050505050905090565b6060600c60003373ffffffffffffffffffffffffffffffffffffffff1673ffffffffffffffffffffffffffffffffffffffff16815260200190815260200160002060000180546110959061345c565b80601f01602080910402602001604051908101604052809291908181526020018280546110c19061345c565b801561110e5780601f106110e35761010080835404028352916020019161110e565b820191906000526020600020905b8154815290600101906020018083116110f157829003601f168201915b5050505050905090565b6111206119d9565b73ffffffffffffffffffffffffffffffffffffffff168273ffffffffffffffffffffffffffffffffffffffff16141561118e576040517f08c379a000000000000000000000000000000000000000000000000000000000815260040161118590613026565b60405180910390fd5b806005600061119b6119d9565b73ffffffffffffffffffffffffffffffffffffffff1673ffffffffffffffffffffffffffffffffffffffff16815260200190815260200160002060008473ffffffffffffffffffffffffffffffffffffffff1673ffffffffffffffffffffffffffffffffffffffff16815260200190815260200160002060006101000a81548160ff0219169083151502179055508173ffffffffffffffffffffffffffffffffffffffff166112486119d9565b73ffffffffffffffffffffffffffffffffffffffff167f17307eab39ab6107e8899845ad3d59bd9653f200f220920489ca2b5937696c318360405161128d9190612f29565b60405180910390a35050565b6112aa6112a46119d9565b83611a9a565b6112e9576040517f08c379a00000000000000000000000000000000000000000000000000000000081526004016112e0906131a6565b60405180910390fd5b6112f584848484611dd4565b50505050565b600b818154811061130b57600080fd5b9060005260206000200160009150905080546113269061345c565b80601f01602080910402602001604051908101604052809291908181526020018280546113529061345c565b801561139f5780601f106113745761010080835404028352916020019161139f565b820191906000526020600020905b81548152906001019060200180831161138257829003601f168201915b505050505081565b60606113b28261196d565b6113f1576040517f08c379a00000000000000000000000000000000000000000000000000000000081526004016113e890613146565b60405180910390fd5b60006113fb611e30565b9050600081511161141b5760405180602001604052806000815250611446565b8061142584611e47565b604051602001611436929190612e9e565b6040516020818303038152906040525b915050919050565b600073ffffffffffffffffffffffffffffffffffffffff163373ffffffffffffffffffffffffffffffffffffffff1614156114be576040517f08c379a00000000000000000000000000000000000000000000000000000000081526004016114b590612fc6565b60405180910390fd5b60011515600c60003373ffffffffffffffffffffffffffffffffffffffff1673ffffffffffffffffffffffffffffffffffffffff16815260200190815260200160002060010160009054906101000a900460ff16151514611554576040517f08c379a000000000000000000000000000000000000000000000000000000000815260040161154b90613186565b60405180910390fd5b611627600c60003373ffffffffffffffffffffffffffffffffffffffff1673ffffffffffffffffffffffffffffffffffffffff16815260200190815260200160002060000180546115a49061345c565b80601f01602080910402602001604051908101604052809291908181526020018280546115d09061345c565b801561161d5780601f106115f25761010080835404028352916020019161161d565b820191906000526020600020905b81548152906001019060200180831161160057829003601f168201915b50505050506107c4565b565b6000600560008473ffffffffffffffffffffffffffffffffffffffff1673ffffffffffffffffffffffffffffffffffffffff16815260200190815260200160002060008373ffffffffffffffffffffffffffffffffffffffff1673ffffffffffffffffffffffffffffffffffffffff16815260200190815260200160002060009054906101000a900460ff16905092915050565b600073ffffffffffffffffffffffffffffffffffffffff168273ffffffffffffffffffffffffffffffffffffffff16141561172d576040517f08c379a0000000000000000000000000000000000000000000000000000000008152600401611724906130c6565b60405180910390fd5b6117368161196d565b15611776576040517f08c379a000000000000000000000000000000000000000000000000000000000815260040161176d90612fe6565b60405180910390fd5b61178260008383611ff4565b6001600360008473ffffffffffffffffffffffffffffffffffffffff1673ffffffffffffffffffffffffffffffffffffffff16815260200190815260200160002060008282546117d291906132eb565b92505081905550816002600083815260200190815260200160002060006101000a81548173ffffffffffffffffffffffffffffffffffffffff021916908373ffffffffffffffffffffffffffffffffffffffff160217905550808273ffffffffffffffffffffffffffffffffffffffff16600073ffffffffffffffffffffffffffffffffffffffff167fddf252ad1be2c89b69c2b068fc378daa952ba7f163c4a11628f55a4df523b3ef60405160405180910390a45050565b60007f80ac58cd000000000000000000000000000000000000000000000000000000007bffffffffffffffffffffffffffffffffffffffffffffffffffffffff1916827bffffffffffffffffffffffffffffffffffffffffffffffffffffffff1916148061195657507f5b5e139f000000000000000000000000000000000000000000000000000000007bffffffffffffffffffffffffffffffffffffffffffffffffffffffff1916827bffffffffffffffffffffffffffffffffffffffffffffffffffffffff1916145b80611966575061196582612108565b5b9050919050565b60008073ffffffffffffffffffffffffffffffffffffffff166002600084815260200190815260200160002060009054906101000a900473ffffffffffffffffffffffffffffffffffffffff1673ffffffffffffffffffffffffffffffffffffffff1614159050919050565b600033905090565b816004600083815260200190815260200160002060006101000a81548173ffffffffffffffffffffffffffffffffffffffff021916908373ffffffffffffffffffffffffffffffffffffffff160217905550808273ffffffffffffffffffffffffffffffffffffffff16611a5483610e3e565b73ffffffffffffffffffffffffffffffffffffffff167f8c5be1e5ebec7d5bd14f71427d1e84f3dd0314c0f7b2291e5b200ac8c7c3b92560405160405180910390a45050565b6000611aa58261196d565b611ae4576040517f08c379a0000000000000000000000000000000000000000000000000000000008152600401611adb90613046565b60405180910390fd5b6000611aef83610e3e565b90508073ffffffffffffffffffffffffffffffffffffffff168473ffffffffffffffffffffffffffffffffffffffff161480611b5e57508373ffffffffffffffffffffffffffffffffffffffff16611b4684610a3e565b73ffffffffffffffffffffffffffffffffffffffff16145b80611b6f5750611b6e8185611629565b5b91505092915050565b8273ffffffffffffffffffffffffffffffffffffffff16611b9882610e3e565b73ffffffffffffffffffffffffffffffffffffffff1614611bee576040517f08c379a0000000000000000000000000000000000000000000000000000000008152600401611be590613126565b60405180910390fd5b600073ffffffffffffffffffffffffffffffffffffffff168273ffffffffffffffffffffffffffffffffffffffff161415611c5e576040517f08c379a0000000000000000000000000000000000000000000000000000000008152600401611c5590613006565b60405180910390fd5b611c69838383611ff4565b611c746000826119e1565b6001600360008573ffffffffffffffffffffffffffffffffffffffff1673ffffffffffffffffffffffffffffffffffffffff1681526020019081526020016000206000828254611cc49190613372565b925050819055506001600360008473ffffffffffffffffffffffffffffffffffffffff1673ffffffffffffffffffffffffffffffffffffffff1681526020019081526020016000206000828254611d1b91906132eb565b92505081905550816002600083815260200190815260200160002060006101000a81548173ffffffffffffffffffffffffffffffffffffffff021916908373ffffffffffffffffffffffffffffffffffffffff160217905550808273ffffffffffffffffffffffffffffffffffffffff168473ffffffffffffffffffffffffffffffffffffffff167fddf252ad1be2c89b69c2b068fc378daa952ba7f163c4a11628f55a4df523b3ef60405160405180910390a4505050565b611ddf848484611b78565b611deb84848484612172565b611e2a576040517f08c379a0000000000000000000000000000000000000000000000000000000008152600401611e2190612fa6565b60405180910390fd5b50505050565b606060405180602001604052806000815250905090565b60606000821415611e8f576040518060400160405280600181526020017f30000000000000000000000000000000000000000000000000000000000000008152509050611fef565b600082905060005b60008214611ec1578080611eaa906134bf565b915050600a82611eba9190613341565b9150611e97565b60008167ffffffffffffffff811115611f03577f4e487b7100000000000000000000000000000000000000000000000000000000600052604160045260246000fd5b6040519080825280601f01601f191660200182016040528015611f355781602001600182028036833780820191505090505b5090505b60008514611fe857600182611f4e9190613372565b9150600a85611f5d9190613508565b6030611f6991906132eb565b60f81b818381518110611fa5577f4e487b7100000000000000000000000000000000000000000000000000000000600052603260045260246000fd5b60200101907effffffffffffffffffffffffffffffffffffffffffffffffffffffffffffff1916908160001a905350600a85611fe19190613341565b9450611f39565b8093505050505b919050565b611fff838383612309565b600073ffffffffffffffffffffffffffffffffffffffff168373ffffffffffffffffffffffffffffffffffffffff1614156120425761203d8161230e565b612081565b8173ffffffffffffffffffffffffffffffffffffffff168373ffffffffffffffffffffffffffffffffffffffff16146120805761207f8382612357565b5b5b600073ffffffffffffffffffffffffffffffffffffffff168273ffffffffffffffffffffffffffffffffffffffff1614156120c4576120bf816124c4565b612103565b8273ffffffffffffffffffffffffffffffffffffffff168273ffffffffffffffffffffffffffffffffffffffff1614612102576121018282612607565b5b5b505050565b60007f01ffc9a7000000000000000000000000000000000000000000000000000000007bffffffffffffffffffffffffffffffffffffffffffffffffffffffff1916827bffffffffffffffffffffffffffffffffffffffffffffffffffffffff1916149050919050565b60006121938473ffffffffffffffffffffffffffffffffffffffff16612686565b156122fc578373ffffffffffffffffffffffffffffffffffffffff1663150b7a026121bc6119d9565b8786866040518563ffffffff1660e01b81526004016121de9493929190612edd565b602060405180830381600087803b1580156121f857600080fd5b505af192505050801561222957506040513d601f19601f820116820180604052508101906122269190612a45565b60015b6122ac573d8060008114612259576040519150601f19603f3d011682016040523d82523d6000602084013e61225e565b606091505b506000815114156122a4576040517f08c379a000000000000000000000000000000000000000000000000000000000815260040161229b90612fa6565b60405180910390fd5b805181602001fd5b63150b7a0260e01b7bffffffffffffffffffffffffffffffffffffffffffffffffffffffff1916817bffffffffffffffffffffffffffffffffffffffffffffffffffffffff191614915050612301565b600190505b949350505050565b505050565b6008805490506009600083815260200190815260200160002081905550600881908060018154018082558091505060019003906000526020600020016000909190919091505550565b6000600161236484610ef0565b61236e9190613372565b9050600060076000848152602001908152602001600020549050818114612453576000600660008673ffffffffffffffffffffffffffffffffffffffff1673ffffffffffffffffffffffffffffffffffffffff168152602001908152602001600020600084815260200190815260200160002054905080600660008773ffffffffffffffffffffffffffffffffffffffff1673ffffffffffffffffffffffffffffffffffffffff168152602001908152602001600020600084815260200190815260200160002081905550816007600083815260200190815260200160002081905550505b6007600084815260200190815260200160002060009055600660008573ffffffffffffffffffffffffffffffffffffffff1673ffffffffffffffffffffffffffffffffffffffff16815260200190815260200160002060008381526020019081526020016000206000905550505050565b600060016008805490506124d89190613372565b905060006009600084815260200190815260200160002054905060006008838154811061252e577f4e487b7100000000000000000000000000000000000000000000000000000000600052603260045260246000fd5b906000526020600020015490508060088381548110612576577f4e487b7100000000000000000000000000000000000000000000000000000000600052603260045260246000fd5b9060005260206000200181905550816009600083815260200190815260200160002081905550600960008581526020019081526020016000206000905560088054806125eb577f4e487b7100000000000000000000000000000000000000000000000000000000600052603160045260246000fd5b6001900381819060005260206000200160009055905550505050565b600061261283610ef0565b905081600660008573ffffffffffffffffffffffffffffffffffffffff1673ffffffffffffffffffffffffffffffffffffffff168152602001908152602001600020600083815260200190815260200160002081905550806007600084815260200190815260200160002081905550505050565b600080823b905060008111915050919050565b8280546126a59061345c565b90600052602060002090601f0160209004810192826126c7576000855561270e565b82601f106126e057805160ff191683800117855561270e565b8280016001018555821561270e579182015b8281111561270d5782518255916020019190600101906126f2565b5b50905061271b919061271f565b5090565b5b80821115612738576000816000905550600101612720565b5090565b600061274f61274a84613246565b613221565b90508281526020810184848401111561276757600080fd5b61277284828561341a565b509392505050565b600061278d61278884613277565b613221565b9050828152602081018484840111156127a557600080fd5b6127b084828561341a565b509392505050565b6000813590506127c781613b77565b92915050565b6000813590506127dc81613b8e565b92915050565b6000813590506127f181613ba5565b92915050565b60008151905061280681613ba5565b92915050565b600082601f83011261281d57600080fd5b813561282d84826020860161273c565b91505092915050565b600082601f83011261284757600080fd5b813561285784826020860161277a565b91505092915050565b60008135905061286f81613bbc565b92915050565b60006020828403121561288757600080fd5b6000612895848285016127b8565b91505092915050565b600080604083850312156128b157600080fd5b60006128bf858286016127b8565b92505060206128d0858286016127b8565b9150509250929050565b6000806000606084860312156128ef57600080fd5b60006128fd868287016127b8565b935050602061290e868287016127b8565b925050604061291f86828701612860565b9150509250925092565b6000806000806080858703121561293f57600080fd5b600061294d878288016127b8565b945050602061295e878288016127b8565b935050604061296f87828801612860565b925050606085013567ffffffffffffffff81111561298c57600080fd5b6129988782880161280c565b91505092959194509250565b600080604083850312156129b757600080fd5b60006129c5858286016127b8565b92505060206129d6858286016127cd565b9150509250929050565b600080604083850312156129f357600080fd5b6000612a01858286016127b8565b9250506020612a1285828601612860565b9150509250929050565b600060208284031215612a2e57600080fd5b6000612a3c848285016127e2565b91505092915050565b600060208284031215612a5757600080fd5b6000612a65848285016127f7565b91505092915050565b600060208284031215612a8057600080fd5b600082013567ffffffffffffffff811115612a9a57600080fd5b612aa684828501612836565b91505092915050565b600060208284031215612ac157600080fd5b6000612acf84828501612860565b91505092915050565b612ae1816133a6565b82525050565b612af0816133b8565b82525050565b6000612b01826132a8565b612b0b81856132be565b9350612b1b818560208601613429565b612b24816135f5565b840191505092915050565b6000612b3a826132b3565b612b4481856132cf565b9350612b54818560208601613429565b612b5d816135f5565b840191505092915050565b6000612b73826132b3565b612b7d81856132e0565b9350612b8d818560208601613429565b80840191505092915050565b6000612ba6602b836132cf565b9150612bb182613606565b604082019050919050565b6000612bc96011836132cf565b9150612bd482613655565b602082019050919050565b6000612bec6032836132cf565b9150612bf78261367e565b604082019050919050565b6000612c0f6010836132cf565b9150612c1a826136cd565b602082019050919050565b6000612c32601c836132cf565b9150612c3d826136f6565b602082019050919050565b6000612c556024836132cf565b9150612c608261371f565b604082019050919050565b6000612c786019836132cf565b9150612c838261376e565b602082019050919050565b6000612c9b602c836132cf565b9150612ca682613797565b604082019050919050565b6000612cbe6038836132cf565b9150612cc9826137e6565b604082019050919050565b6000612ce1602a836132cf565b9150612cec82613835565b604082019050919050565b6000612d046029836132cf565b9150612d0f82613884565b604082019050919050565b6000612d276020836132cf565b9150612d32826138d3565b602082019050919050565b6000612d4a602c836132cf565b9150612d55826138fc565b604082019050919050565b6000612d6d601f836132cf565b9150612d788261394b565b602082019050919050565b6000612d906029836132cf565b9150612d9b82613974565b604082019050919050565b6000612db3602f836132cf565b9150612dbe826139c3565b604082019050919050565b6000612dd66021836132cf565b9150612de182613a12565b604082019050919050565b6000612df9602d836132cf565b9150612e0482613a61565b604082019050919050565b6000612e1c6031836132cf565b9150612e2782613ab0565b604082019050919050565b6000612e3f602c836132cf565b9150612e4a82613aff565b604082019050919050565b6000612e626014836132cf565b9150612e6d82613b4e565b602082019050919050565b612e8181613410565b82525050565b6000612e938284612b68565b915081905092915050565b6000612eaa8285612b68565b9150612eb68284612b68565b91508190509392505050565b6000602082019050612ed76000830184612ad8565b92915050565b6000608082019050612ef26000830187612ad8565b612eff6020830186612ad8565b612f0c6040830185612e78565b8181036060830152612f1e8184612af6565b905095945050505050565b6000602082019050612f3e6000830184612ae7565b92915050565b60006020820190508181036000830152612f5e8184612b2f565b905092915050565b60006020820190508181036000830152612f7f81612b99565b9050919050565b60006020820190508181036000830152612f9f81612bbc565b9050919050565b60006020820190508181036000830152612fbf81612bdf565b9050919050565b60006020820190508181036000830152612fdf81612c02565b9050919050565b60006020820190508181036000830152612fff81612c25565b9050919050565b6000602082019050818103600083015261301f81612c48565b9050919050565b6000602082019050818103600083015261303f81612c6b565b9050919050565b6000602082019050818103600083015261305f81612c8e565b9050919050565b6000602082019050818103600083015261307f81612cb1565b9050919050565b6000602082019050818103600083015261309f81612cd4565b9050919050565b600060208201905081810360008301526130bf81612cf7565b9050919050565b600060208201905081810360008301526130df81612d1a565b9050919050565b600060208201905081810360008301526130ff81612d3d565b9050919050565b6000602082019050818103600083015261311f81612d60565b9050919050565b6000602082019050818103600083015261313f81612d83565b9050919050565b6000602082019050818103600083015261315f81612da6565b9050919050565b6000602082019050818103600083015261317f81612dc9565b9050919050565b6000602082019050818103600083015261319f81612dec565b9050919050565b600060208201905081810360008301526131bf81612e0f565b9050919050565b600060208201905081810360008301526131df81612e32565b9050919050565b600060208201905081810360008301526131ff81612e55565b9050919050565b600060208201905061321b6000830184612e78565b92915050565b600061322b61323c565b9050613237828261348e565b919050565b6000604051905090565b600067ffffffffffffffff821115613261576132606135c6565b5b61326a826135f5565b9050602081019050919050565b600067ffffffffffffffff821115613292576132916135c6565b5b61329b826135f5565b9050602081019050919050565b600081519050919050565b600081519050919050565b600082825260208201905092915050565b600082825260208201905092915050565b600081905092915050565b60006132f682613410565b915061330183613410565b9250827fffffffffffffffffffffffffffffffffffffffffffffffffffffffffffffffff0382111561333657613335613539565b5b828201905092915050565b600061334c82613410565b915061335783613410565b92508261336757613366613568565b5b828204905092915050565b600061337d82613410565b915061338883613410565b92508282101561339b5761339a613539565b5b828203905092915050565b60006133b1826133f0565b9050919050565b60008115159050919050565b60007fffffffff0000000000000000000000000000000000000000000000000000000082169050919050565b600073ffffffffffffffffffffffffffffffffffffffff82169050919050565b6000819050919050565b82818337600083830152505050565b60005b8381101561344757808201518184015260208101905061342c565b83811115613456576000848401525b50505050565b6000600282049050600182168061347457607f821691505b6020821081141561348857613487613597565b5b50919050565b613497826135f5565b810181811067ffffffffffffffff821117156134b6576134b56135c6565b5b80604052505050565b60006134ca82613410565b91507fffffffffffffffffffffffffffffffffffffffffffffffffffffffffffffffff8214156134fd576134fc613539565b5b600182019050919050565b600061351382613410565b915061351e83613410565b92508261352e5761352d613568565b5b828206905092915050565b7f4e487b7100000000000000000000000000000000000000000000000000000000600052601160045260246000fd5b7f4e487b7100000000000000000000000000000000000000000000000000000000600052601260045260246000fd5b7f4e487b7100000000000000000000000000000000000000000000000000000000600052602260045260246000fd5b7f4e487b7100000000000000000000000000000000000000000000000000000000600052604160045260246000fd5b6000601f19601f8301169050919050565b7f455243373231456e756d657261626c653a206f776e657220696e646578206f7560008201527f74206f6620626f756e6473000000000000000000000000000000000000000000602082015250565b7f6e6f7420656e6f756768742066756e6473000000000000000000000000000000600082015250565b7f4552433732313a207472616e7366657220746f206e6f6e20455243373231526560008201527f63656976657220696d706c656d656e7465720000000000000000000000000000602082015250565b7f6e6f206164647265737320666f756e6400000000000000000000000000000000600082015250565b7f4552433732313a20746f6b656e20616c7265616479206d696e74656400000000600082015250565b7f4552433732313a207472616e7366657220746f20746865207a65726f2061646460008201527f7265737300000000000000000000000000000000000000000000000000000000602082015250565b7f4552433732313a20617070726f766520746f2063616c6c657200000000000000600082015250565b7f4552433732313a206f70657261746f7220717565727920666f72206e6f6e657860008201527f697374656e7420746f6b656e0000000000000000000000000000000000000000602082015250565b7f4552433732313a20617070726f76652063616c6c6572206973206e6f74206f7760008201527f6e6572206e6f7220617070726f76656420666f7220616c6c0000000000000000602082015250565b7f4552433732313a2062616c616e636520717565727920666f7220746865207a6560008201527f726f206164647265737300000000000000000000000000000000000000000000602082015250565b7f4552433732313a206f776e657220717565727920666f72206e6f6e657869737460008201527f656e7420746f6b656e0000000000000000000000000000000000000000000000602082015250565b7f4552433732313a206d696e7420746f20746865207a65726f2061646472657373600082015250565b7f4552433732313a20617070726f76656420717565727920666f72206e6f6e657860008201527f697374656e7420746f6b656e0000000000000000000000000000000000000000602082015250565b7f6e6f7420656e6f756768742046554e445320686173206265656e2073656e7400600082015250565b7f4552433732313a207472616e73666572206f6620746f6b656e2074686174206960008201527f73206e6f74206f776e0000000000000000000000000000000000000000000000602082015250565b7f4552433732314d657461646174613a2055524920717565727920666f72206e6f60008201527f6e6578697374656e7420746f6b656e0000000000000000000000000000000000602082015250565b7f4552433732313a20617070726f76616c20746f2063757272656e74206f776e6560008201527f7200000000000000000000000000000000000000000000000000000000000000602082015250565b7f636f6e747261637420646f65736e277420617761697420666f7220746869732060008201527f61646472657320746f2070617900000000000000000000000000000000000000602082015250565b7f4552433732313a207472616e736665722063616c6c6572206973206e6f74206f60008201527f776e6572206e6f7220617070726f766564000000000000000000000000000000602082015250565b7f455243373231456e756d657261626c653a20676c6f62616c20696e646578206f60008201527f7574206f6620626f756e64730000000000000000000000000000000000000000602082015250565b7f636f6c6f7220616c726561647920657869737473000000000000000000000000600082015250565b613b80816133a6565b8114613b8b57600080fd5b50565b613b97816133b8565b8114613ba257600080fd5b50565b613bae816133c4565b8114613bb957600080fd5b50565b613bc581613410565b8114613bd057600080fd5b5056fea26469706673582212200a8c6ac8bd51db6240e36d642583c6401de18f29141ab0874c3ef1c6fe4c7c3a64736f6c63430008040033",
  "immutableReferences": {},
  "source": "// SPDX-License-Identifier: MIT\r\npragma solidity >=0.8.0;\r\n\r\nimport \"@openzeppelin/contracts/token/ERC721/extensions/ERC721Enumerable.sol\";\r\n\r\ncontract ColorBubble is ERC721Enumerable\r\n{\r\n\t// var\r\n\taddress\tpublic creator;\r\n\tstring [] public colors;\r\n\tstruct Await {\r\n\t\tstring color;\r\n\t\tbool exists;\r\n\t}\r\n\tmapping (address => Await) private _awaits;\r\n\tmapping (string => bool) private _colorExists;\r\n\tuint constant public tokenPrice = 1000000000000000000;\r\n\r\n\r\n\t// modifiers\r\n\tmodifier OnlyCreator\r\n\t{\r\n\t\trequire (msg.sender == creator, \"CREATOR rights required\");\r\n\t\t_;\r\n\t}\r\n\r\n\tmodifier PriceFit\r\n\t{\r\n\t\trequire (msg.value >= tokenPrice, \"not enought FUNDS has been sent\");\r\n\t\t_;\r\n\t}\r\n\r\n\r\n\t// construct\r\n\tconstructor ()\r\n\tERC721 ('ColorBubble', 'CBBB')\r\n\t{\r\n\t\tcreator = msg.sender;\r\n\t}\r\n\r\n\r\n\t// create token\r\n\tfunction mint\r\n\t(\r\n\t\tstring memory _color\r\n\t)\r\n\t\tpublic\r\n\t\tpayable\r\n\t\tPriceFit\r\n\t{\r\n\t\t// check if this color is not existed yet\r\n\t\trequire(_colorExists[_color] == false, \"color already exists\");\r\n\r\n\t\t// save color\r\n\t\tcolors.push(_color);\r\n\t\t_colorExists[_color] = true;\r\n\r\n\t\t// create token ID\r\n\t\tuint _id = colors.length;\r\n\r\n\t\t// mint token\r\n\t\t_mint(msg.sender, _id);\r\n\t}\r\n\r\n\r\n\t// tell contract to await for pay from other source\r\n\tfunction await\r\n\t(\r\n\t\tstring memory _color\r\n\t)\r\n\t\tpublic\r\n\t{\r\n\t\t_awaits[msg.sender] = Await(_color, true);\r\n\t}\r\n\r\n\tfunction checkAwait\r\n\t(\r\n\r\n\t)\r\n\t\tview\r\n\t\tpublic\r\n\t\treturns (string memory)\r\n\t{\r\n\t\treturn _awaits[msg.sender].color;\r\n\t}\r\n\r\n\r\n\t// on receive etiher\r\n\treceive ()\r\n\t\texternal\r\n\t\tpayable\r\n\t{\r\n\t\trequire (msg.sender != address(0), \"no address found\");\r\n\t\trequire (msg.value >= tokenPrice, \"not enought funds\");\r\n\t\trequire (_awaits[msg.sender].exists == true, \"contract doesn't await for this addres to pay\");\r\n\r\n\t\tmint(_awaits[msg.sender].color);\r\n\t}\r\n\t\r\n\tfunction emulateReceive\r\n\t()\r\n\t\tpublic\r\n\t{\r\n\t\t// check if we were awaiting for this trfansfer\r\n\t\trequire (msg.sender != address(0), \"no address found\");\r\n\t\t//require (msg.value >= tokenPrice, \"not enought funds\");\r\n\t\trequire (_awaits[msg.sender].exists == true, \"contract doesn't await for this addres to pay\");\r\n\r\n\t\tmint(_awaits[msg.sender].color);\r\n\t}\r\n\r\n}",
  "sourcePath": "G:/solidity/sol_5_ERC_721/#src/contracts/ColorBubble.sol",
  "compiler": {
    "name": "solc",
    "version": "0.8.4+commit.c7e474f2.Emscripten.clang"
  },
  "schemaVersion": "3.4.1",
  "updatedAt": "2021-05-25T11:11:33.292Z",
  "networkType": "ethereum",
  "devdoc": {
    "kind": "dev",
    "methods": {
      "approve(address,uint256)": {
        "details": "See {IERC721-approve}."
      },
      "balanceOf(address)": {
        "details": "See {IERC721-balanceOf}."
      },
      "getApproved(uint256)": {
        "details": "See {IERC721-getApproved}."
      },
      "isApprovedForAll(address,address)": {
        "details": "See {IERC721-isApprovedForAll}."
      },
      "name()": {
        "details": "See {IERC721Metadata-name}."
      },
      "ownerOf(uint256)": {
        "details": "See {IERC721-ownerOf}."
      },
      "safeTransferFrom(address,address,uint256)": {
        "details": "See {IERC721-safeTransferFrom}."
      },
      "safeTransferFrom(address,address,uint256,bytes)": {
        "details": "See {IERC721-safeTransferFrom}."
      },
      "setApprovalForAll(address,bool)": {
        "details": "See {IERC721-setApprovalForAll}."
      },
      "supportsInterface(bytes4)": {
        "details": "See {IERC165-supportsInterface}."
      },
      "symbol()": {
        "details": "See {IERC721Metadata-symbol}."
      },
      "tokenByIndex(uint256)": {
        "details": "See {IERC721Enumerable-tokenByIndex}."
      },
      "tokenOfOwnerByIndex(address,uint256)": {
        "details": "See {IERC721Enumerable-tokenOfOwnerByIndex}."
      },
      "tokenURI(uint256)": {
        "details": "See {IERC721Metadata-tokenURI}."
      },
      "totalSupply()": {
        "details": "See {IERC721Enumerable-totalSupply}."
      },
      "transferFrom(address,address,uint256)": {
        "details": "See {IERC721-transferFrom}."
      }
    },
    "version": 1
  },
  "userdoc": {
    "kind": "user",
    "methods": {},
    "version": 1
  }
}