{
  "contractName": "MyContract",
  "abi": [
    {
      "inputs": [],
      "stateMutability": "nonpayable",
      "type": "constructor"
    },
    {
      "inputs": [],
      "name": "name",
      "outputs": [
        {
          "internalType": "string",
          "name": "",
          "type": "string"
        }
      ],
      "stateMutability": "view",
      "type": "function",
      "constant": true
    },
    {
      "inputs": [],
      "name": "standard",
      "outputs": [
        {
          "internalType": "string",
          "name": "",
          "type": "string"
        }
      ],
      "stateMutability": "view",
      "type": "function",
      "constant": true
    },
    {
      "inputs": [],
      "name": "symbol",
      "outputs": [
        {
          "internalType": "string",
          "name": "",
          "type": "string"
        }
      ],
      "stateMutability": "view",
      "type": "function",
      "constant": true
    }
  ],
  "bytecode": "0x60806040526040518060400160405280600a81526020017f4d79436f6e7472616374000000000000000000000000000000000000000000008152506000908051906020019061004f9291906100fa565b506040518060400160405280600381526020017f4d544b00000000000000000000000000000000000000000000000000000000008152506001908051906020019061009b9291906100fa565b506040518060400160405280600781526020017f4552432d37323100000000000000000000000000000000000000000000000000815250600290805190602001906100e79291906100fa565b503480156100f457600080fd5b506101fe565b8280546101069061019d565b90600052602060002090601f016020900481019282610128576000855561016f565b82601f1061014157805160ff191683800117855561016f565b8280016001018555821561016f579182015b8281111561016e578251825591602001919060010190610153565b5b50905061017c9190610180565b5090565b5b80821115610199576000816000905550600101610181565b5090565b600060028204905060018216806101b557607f821691505b602082108114156101c9576101c86101cf565b5b50919050565b7f4e487b7100000000000000000000000000000000000000000000000000000000600052602260045260246000fd5b61039c8061020d6000396000f3fe608060405234801561001057600080fd5b50600436106100415760003560e01c806306fdde03146100465780635a3b7e421461006457806395d89b4114610082575b600080fd5b61004e6100a0565b60405161005b9190610283565b60405180910390f35b61006c61012e565b6040516100799190610283565b60405180910390f35b61008a6101bc565b6040516100979190610283565b60405180910390f35b600080546100ad906102f4565b80601f01602080910402602001604051908101604052809291908181526020018280546100d9906102f4565b80156101265780601f106100fb57610100808354040283529160200191610126565b820191906000526020600020905b81548152906001019060200180831161010957829003601f168201915b505050505081565b6002805461013b906102f4565b80601f0160208091040260200160405190810160405280929190818152602001828054610167906102f4565b80156101b45780601f10610189576101008083540402835291602001916101b4565b820191906000526020600020905b81548152906001019060200180831161019757829003601f168201915b505050505081565b600180546101c9906102f4565b80601f01602080910402602001604051908101604052809291908181526020018280546101f5906102f4565b80156102425780601f1061021757610100808354040283529160200191610242565b820191906000526020600020905b81548152906001019060200180831161022557829003601f168201915b505050505081565b6000610255826102a5565b61025f81856102b0565b935061026f8185602086016102c1565b61027881610355565b840191505092915050565b6000602082019050818103600083015261029d818461024a565b905092915050565b600081519050919050565b600082825260208201905092915050565b60005b838110156102df5780820151818401526020810190506102c4565b838111156102ee576000848401525b50505050565b6000600282049050600182168061030c57607f821691505b602082108114156103205761031f610326565b5b50919050565b7f4e487b7100000000000000000000000000000000000000000000000000000000600052602260045260246000fd5b6000601f19601f830116905091905056fea2646970667358221220512a6405df67bb151fe88a166c9a48b41fd98843596dbdfc869618552e14b8ad64736f6c63430008040033",
  "immutableReferences": {},
  "source": "// SPDX-License-Identifier: MIT\r\npragma solidity >=0.7.0;\r\n\r\ncontract MyContract\r\n{\r\n\tstring public name = 'MyContract';\r\n\tstring public symbol = 'MTK';\r\n\tstring public standard = 'ERC-721';\r\n\t// ...\r\n\tconstructor\r\n\t()\r\n\t{}\r\n}",
  "sourcePath": "G:/solidity/sol_5_ERC_721/contracts/MyContract.sol",
  "compiler": {
    "name": "solc",
    "version": "0.8.4+commit.c7e474f2.Emscripten.clang"
  },
  "schemaVersion": "3.4.1",
  "updatedAt": "2021-05-17T05:44:50.123Z",
  "networkType": "ethereum",
  "devdoc": {
    "kind": "dev",
    "methods": {},
    "version": 1
  },
  "userdoc": {
    "kind": "user",
    "methods": {},
    "version": 1
  }
}