{
  "contractName": "TokenSale",
  "abi": [
    {
      "inputs": [
        {
          "internalType": "contract Token",
          "name": "_tokenContract",
          "type": "address"
        },
        {
          "internalType": "uint256",
          "name": "_price",
          "type": "uint256"
        }
      ],
      "stateMutability": "nonpayable",
      "type": "constructor"
    },
    {
      "anonymous": false,
      "inputs": [
        {
          "indexed": false,
          "internalType": "address",
          "name": "_buyer",
          "type": "address"
        },
        {
          "indexed": false,
          "internalType": "uint256",
          "name": "_amount",
          "type": "uint256"
        }
      ],
      "name": "Sell",
      "type": "event"
    },
    {
      "inputs": [],
      "name": "admin",
      "outputs": [
        {
          "internalType": "address",
          "name": "",
          "type": "address"
        }
      ],
      "stateMutability": "view",
      "type": "function",
      "constant": true
    },
    {
      "inputs": [],
      "name": "token_Contract",
      "outputs": [
        {
          "internalType": "contract Token",
          "name": "",
          "type": "address"
        }
      ],
      "stateMutability": "view",
      "type": "function",
      "constant": true
    },
    {
      "inputs": [],
      "name": "token_Price",
      "outputs": [
        {
          "internalType": "uint256",
          "name": "",
          "type": "uint256"
        }
      ],
      "stateMutability": "view",
      "type": "function",
      "constant": true
    },
    {
      "inputs": [],
      "name": "token_Sold",
      "outputs": [
        {
          "internalType": "uint256",
          "name": "",
          "type": "uint256"
        }
      ],
      "stateMutability": "view",
      "type": "function",
      "constant": true
    },
    {
      "inputs": [],
      "name": "getDeposit",
      "outputs": [
        {
          "internalType": "uint256",
          "name": "deposit",
          "type": "uint256"
        }
      ],
      "stateMutability": "view",
      "type": "function",
      "constant": true
    },
    {
      "inputs": [
        {
          "internalType": "uint256",
          "name": "_amount",
          "type": "uint256"
        }
      ],
      "name": "buyTokens",
      "outputs": [],
      "stateMutability": "payable",
      "type": "function",
      "payable": true
    },
    {
      "inputs": [],
      "name": "endSale",
      "outputs": [],
      "stateMutability": "nonpayable",
      "type": "function"
    }
  ],
  "bytecode": "0x60806040523480156200001157600080fd5b5060405162000ff138038062000ff18339818101604052810190620000379190620000f5565b336000806101000a81548173ffffffffffffffffffffffffffffffffffffffff021916908373ffffffffffffffffffffffffffffffffffffffff1602179055508060028190555081600160006101000a81548173ffffffffffffffffffffffffffffffffffffffff021916908373ffffffffffffffffffffffffffffffffffffffff1602179055505050620001bc565b600081519050620000d88162000188565b92915050565b600081519050620000ef81620001a2565b92915050565b600080604083850312156200010957600080fd5b60006200011985828601620000c7565b92505060206200012c85828601620000de565b9150509250929050565b600062000143826200015e565b9050919050565b6000620001578262000136565b9050919050565b600073ffffffffffffffffffffffffffffffffffffffff82169050919050565b6000819050919050565b62000193816200014a565b81146200019f57600080fd5b50565b620001ad816200017e565b8114620001b957600080fd5b50565b610e2580620001cc6000396000f3fe6080604052600436106100705760003560e01c8063aa6c06241161004e578063aa6c0624146100d3578063c39590a1146100fe578063c399ec8814610129578063f851a4401461015457610070565b80633610724e14610075578063380d831b146100915780635a7316be146100a8575b600080fd5b61008f600480360381019061008a9190610821565b61017f565b005b34801561009d57600080fd5b506100a6610352565b005b3480156100b457600080fd5b506100bd6105ad565b6040516100ca9190610a91565b60405180910390f35b3480156100df57600080fd5b506100e86105b3565b6040516100f59190610a91565b60405180910390f35b34801561010a57600080fd5b506101136105b9565b60405161012091906109b6565b60405180910390f35b34801561013557600080fd5b5061013e6105df565b60405161014b9190610a91565b60405180910390f35b34801561016057600080fd5b50610169610691565b6040516101769190610972565b60405180910390f35b806101886105df565b10156101c9576040517f08c379a00000000000000000000000000000000000000000000000000000000081526004016101c090610a71565b60405180910390fd5b6101d5600254826106b5565b3414610216576040517f08c379a000000000000000000000000000000000000000000000000000000000815260040161020d90610a51565b60405180910390fd5b600160009054906101000a900473ffffffffffffffffffffffffffffffffffffffff1673ffffffffffffffffffffffffffffffffffffffff1663a9059cbb33836040518363ffffffff1660e01b815260040161027392919061098d565b602060405180830381600087803b15801561028d57600080fd5b505af11580156102a1573d6000803e3d6000fd5b505050506040513d601f19601f820116820180604052508101906102c591906107f8565b610304576040517f08c379a00000000000000000000000000000000000000000000000000000000081526004016102fb90610a31565b60405180910390fd5b61031060035482610722565b6003819055507f5e5e995ce3133561afceaa51a9a154d5db228cd7525d34df5185582c18d3df09338260405161034792919061098d565b60405180910390a150565b60008054906101000a900473ffffffffffffffffffffffffffffffffffffffff1673ffffffffffffffffffffffffffffffffffffffff163373ffffffffffffffffffffffffffffffffffffffff16146103e0576040517f08c379a00000000000000000000000000000000000000000000000000000000081526004016103d790610a11565b60405180910390fd5b600160009054906101000a900473ffffffffffffffffffffffffffffffffffffffff1673ffffffffffffffffffffffffffffffffffffffff1663a9059cbb600160009054906101000a900473ffffffffffffffffffffffffffffffffffffffff1673ffffffffffffffffffffffffffffffffffffffff1663f851a4406040518163ffffffff1660e01b815260040160206040518083038186803b15801561048657600080fd5b505afa15801561049a573d6000803e3d6000fd5b505050506040513d601f19601f820116820180604052508101906104be91906107cf565b6104c66105df565b6040518363ffffffff1660e01b81526004016104e392919061098d565b602060405180830381600087803b1580156104fd57600080fd5b505af1158015610511573d6000803e3d6000fd5b505050506040513d601f19601f8201168201806040525081019061053591906107f8565b610574576040517f08c379a000000000000000000000000000000000000000000000000000000000815260040161056b90610a31565b60405180910390fd5b60008054906101000a900473ffffffffffffffffffffffffffffffffffffffff1673ffffffffffffffffffffffffffffffffffffffff16ff5b60035481565b60025481565b600160009054906101000a900473ffffffffffffffffffffffffffffffffffffffff1681565b6000600160009054906101000a900473ffffffffffffffffffffffffffffffffffffffff1673ffffffffffffffffffffffffffffffffffffffff166370a08231306040518263ffffffff1660e01b815260040161063c9190610972565b60206040518083038186803b15801561065457600080fd5b505afa158015610668573d6000803e3d6000fd5b505050506040513d601f19601f8201168201806040525081019061068c919061084a565b905090565b60008054906101000a900473ffffffffffffffffffffffffffffffffffffffff1681565b6000808214806106dd5750828283856106ce9190610b44565b9250826106db9190610b13565b145b61071c576040517f08c379a0000000000000000000000000000000000000000000000000000000008152600401610713906109d1565b60405180910390fd5b92915050565b60008282846107319190610abd565b9150811015610775576040517f08c379a000000000000000000000000000000000000000000000000000000000815260040161076c906109f1565b60405180910390fd5b92915050565b60008151905061078a81610daa565b92915050565b60008151905061079f81610dc1565b92915050565b6000813590506107b481610dd8565b92915050565b6000815190506107c981610dd8565b92915050565b6000602082840312156107e157600080fd5b60006107ef8482850161077b565b91505092915050565b60006020828403121561080a57600080fd5b600061081884828501610790565b91505092915050565b60006020828403121561083357600080fd5b6000610841848285016107a5565b91505092915050565b60006020828403121561085c57600080fd5b600061086a848285016107ba565b91505092915050565b61087c81610b9e565b82525050565b61088b81610be6565b82525050565b600061089e601483610aac565b91506108a982610c68565b602082019050919050565b60006108c1601483610aac565b91506108cc82610c91565b602082019050919050565b60006108e4601f83610aac565b91506108ef82610cba565b602082019050919050565b6000610907600f83610aac565b915061091282610ce3565b602082019050919050565b600061092a603883610aac565b915061093582610d0c565b604082019050919050565b600061094d603083610aac565b915061095882610d5b565b604082019050919050565b61096c81610bdc565b82525050565b60006020820190506109876000830184610873565b92915050565b60006040820190506109a26000830185610873565b6109af6020830184610963565b9392505050565b60006020820190506109cb6000830184610882565b92915050565b600060208201905081810360008301526109ea81610891565b9050919050565b60006020820190508181036000830152610a0a816108b4565b9050919050565b60006020820190508181036000830152610a2a816108d7565b9050919050565b60006020820190508181036000830152610a4a816108fa565b9050919050565b60006020820190508181036000830152610a6a8161091d565b9050919050565b60006020820190508181036000830152610a8a81610940565b9050919050565b6000602082019050610aa66000830184610963565b92915050565b600082825260208201905092915050565b6000610ac882610bdc565b9150610ad383610bdc565b9250827fffffffffffffffffffffffffffffffffffffffffffffffffffffffffffffffff03821115610b0857610b07610c0a565b5b828201905092915050565b6000610b1e82610bdc565b9150610b2983610bdc565b925082610b3957610b38610c39565b5b828204905092915050565b6000610b4f82610bdc565b9150610b5a83610bdc565b9250817fffffffffffffffffffffffffffffffffffffffffffffffffffffffffffffffff0483118215151615610b9357610b92610c0a565b5b828202905092915050565b6000610ba982610bbc565b9050919050565b60008115159050919050565b600073ffffffffffffffffffffffffffffffffffffffff82169050919050565b6000819050919050565b6000610bf182610bf8565b9050919050565b6000610c0382610bbc565b9050919050565b7f4e487b7100000000000000000000000000000000000000000000000000000000600052601160045260246000fd5b7f4e487b7100000000000000000000000000000000000000000000000000000000600052601260045260246000fd5b7f64732d6d6174682d6d756c2d6f766572666c6f77000000000000000000000000600082015250565b7f64732d6d6174682d6164642d6f766572666c6f77000000000000000000000000600082015250565b7f6f6e6c792041444d494e2063616e2066696e697368207468652073616c657300600082015250565b7f7472616e73666572206661696c65640000000000000000000000000000000000600082015250565b7f6e6f7420656e6f756768742066756e64732073656e7420746f2070757263686160008201527f7365207468697320616d6f756e74206f6620746f6b656e730000000000000000602082015250565b7f796f752061736b6564206d6f726520746f6b656e73207468616e20636f6e747260008201527f6163742061637475616c6c792068617300000000000000000000000000000000602082015250565b610db381610b9e565b8114610dbe57600080fd5b50565b610dca81610bb0565b8114610dd557600080fd5b50565b610de181610bdc565b8114610dec57600080fd5b5056fea2646970667358221220bac90f968376aedf4702e37b04e60076f8e53c7b7a0cd3089499d4f8f0fb365a64736f6c63430008040033",
  "immutableReferences": {},
  "source": "// SPDX-License-Identifier: MIT\r\npragma solidity >=0.7.0;\r\n\r\nimport './Token.sol';\r\nimport './Math.sol';\r\n\r\ncontract TokenSale is DSMath\r\n{\r\n\t// var\r\n\taddress public admin;\r\n\tToken \tpublic token_Contract;\r\n\tuint256 public token_Price;\r\n\tuint256 public token_Sold;\r\n\r\n\t// events\r\n\tevent Sell\r\n\t(\r\n\t\taddress _buyer,\r\n\t\tuint256 _amount\r\n\t);\r\n\r\n\t// system functions\r\n\t//receive () {}\r\n\r\n\t// construct\r\n\tconstructor\r\n\t(\r\n\t\tToken \t_tokenContract,\r\n\t\tuint256 _price\r\n\t)\r\n\t{\r\n\t\tadmin \t\t\t= msg.sender;\r\n\t\ttoken_Price\t\t= _price;\r\n\t\ttoken_Contract\t= _tokenContract;\r\n\t}\r\n\r\n\t// help functions\r\n\tfunction getDeposit ()\r\n\t\tview\r\n\t\tpublic\r\n\t\treturns (uint256 deposit)\r\n\t{\r\n\t\treturn token_Contract.balanceOf(address(this));\r\n\t}\r\n\r\n\t// buy tokens\r\n\tfunction buyTokens\r\n\t(\r\n\t\tuint256 _amount\r\n\t)\r\n\t\tpublic\r\n\t\tpayable\r\n\t{\r\n\t\t// require contract have asked tokens\r\n\t\trequire ( getDeposit() >= _amount, \"you asked more tokens than contract actually has\" );\r\n\t\trequire ( msg.value == mul(token_Price, _amount), \"not enought funds sent to purchase this amount of tokens\" );\r\n\t\trequire ( token_Contract.transfer(msg.sender, _amount), \"transfer failed\" );\r\n\r\n\t\ttoken_Sold = add(token_Sold, _amount);\r\n\r\n\t\temit Sell (msg.sender, _amount);\r\n\t}\r\n\r\n\t// finish sales\r\n\tfunction endSale ()\r\n\t\tpublic\r\n\t{\r\n\t\trequire ( msg.sender == admin, \"only ADMIN can finish the sales\" );\r\n\t\trequire ( token_Contract.transfer(token_Contract.admin(), getDeposit()), \"transfer failed\" );\r\n\r\n\t\tselfdestruct(payable(admin));\r\n\t}\r\n}",
  "sourcePath": "G:/solidity/sol_4_token/contracts/TokenSale.sol",
  "compiler": {
    "name": "solc",
    "version": "0.8.4+commit.c7e474f2.Emscripten.clang"
  },
  "schemaVersion": "3.4.0",
  "updatedAt": "2021-05-11T06:57:30.148Z",
  "networkType": "ethereum",
  "devdoc": {
    "kind": "dev",
    "methods": {},
    "version": 1
  },
  "userdoc": {
    "kind": "user",
    "methods": {},
    "version": 1
  }
}