{
  "contractName": "Token",
  "abi": [
    {
      "inputs": [
        {
          "internalType": "uint256",
          "name": "_initialSupply",
          "type": "uint256"
        }
      ],
      "stateMutability": "nonpayable",
      "type": "constructor"
    },
    {
      "anonymous": false,
      "inputs": [
        {
          "indexed": true,
          "internalType": "address",
          "name": "_owner",
          "type": "address"
        },
        {
          "indexed": true,
          "internalType": "address",
          "name": "_spender",
          "type": "address"
        },
        {
          "indexed": false,
          "internalType": "uint256",
          "name": "_value",
          "type": "uint256"
        }
      ],
      "name": "Approval",
      "type": "event"
    },
    {
      "anonymous": false,
      "inputs": [
        {
          "indexed": true,
          "internalType": "address",
          "name": "_from",
          "type": "address"
        },
        {
          "indexed": true,
          "internalType": "address",
          "name": "_to",
          "type": "address"
        },
        {
          "indexed": false,
          "internalType": "uint256",
          "name": "_value",
          "type": "uint256"
        }
      ],
      "name": "Transfer",
      "type": "event"
    },
    {
      "inputs": [],
      "name": "admin",
      "outputs": [
        {
          "internalType": "address",
          "name": "",
          "type": "address"
        }
      ],
      "stateMutability": "view",
      "type": "function",
      "constant": true
    },
    {
      "inputs": [
        {
          "internalType": "address",
          "name": "",
          "type": "address"
        },
        {
          "internalType": "address",
          "name": "",
          "type": "address"
        }
      ],
      "name": "allowance",
      "outputs": [
        {
          "internalType": "uint256",
          "name": "",
          "type": "uint256"
        }
      ],
      "stateMutability": "view",
      "type": "function",
      "constant": true
    },
    {
      "inputs": [
        {
          "internalType": "address",
          "name": "",
          "type": "address"
        }
      ],
      "name": "balanceOf",
      "outputs": [
        {
          "internalType": "uint256",
          "name": "",
          "type": "uint256"
        }
      ],
      "stateMutability": "view",
      "type": "function",
      "constant": true
    },
    {
      "inputs": [],
      "name": "name",
      "outputs": [
        {
          "internalType": "string",
          "name": "",
          "type": "string"
        }
      ],
      "stateMutability": "view",
      "type": "function",
      "constant": true
    },
    {
      "inputs": [],
      "name": "standard",
      "outputs": [
        {
          "internalType": "string",
          "name": "",
          "type": "string"
        }
      ],
      "stateMutability": "view",
      "type": "function",
      "constant": true
    },
    {
      "inputs": [],
      "name": "symbol",
      "outputs": [
        {
          "internalType": "string",
          "name": "",
          "type": "string"
        }
      ],
      "stateMutability": "view",
      "type": "function",
      "constant": true
    },
    {
      "inputs": [],
      "name": "totalSupply",
      "outputs": [
        {
          "internalType": "uint256",
          "name": "",
          "type": "uint256"
        }
      ],
      "stateMutability": "view",
      "type": "function",
      "constant": true
    },
    {
      "inputs": [
        {
          "internalType": "address",
          "name": "_to",
          "type": "address"
        },
        {
          "internalType": "uint256",
          "name": "_value",
          "type": "uint256"
        }
      ],
      "name": "transfer",
      "outputs": [
        {
          "internalType": "bool",
          "name": "success",
          "type": "bool"
        }
      ],
      "stateMutability": "nonpayable",
      "type": "function"
    },
    {
      "inputs": [
        {
          "internalType": "address",
          "name": "_spender",
          "type": "address"
        },
        {
          "internalType": "uint256",
          "name": "_value",
          "type": "uint256"
        }
      ],
      "name": "approve",
      "outputs": [
        {
          "internalType": "bool",
          "name": "success",
          "type": "bool"
        }
      ],
      "stateMutability": "nonpayable",
      "type": "function"
    },
    {
      "inputs": [
        {
          "internalType": "address",
          "name": "_from",
          "type": "address"
        },
        {
          "internalType": "address",
          "name": "_to",
          "type": "address"
        },
        {
          "internalType": "uint256",
          "name": "_value",
          "type": "uint256"
        }
      ],
      "name": "transferFrom",
      "outputs": [
        {
          "internalType": "bool",
          "name": "success",
          "type": "bool"
        }
      ],
      "stateMutability": "nonpayable",
      "type": "function"
    }
  ],
  "bytecode": "0x608060405234801561001057600080fd5b50604051610f16380380610f16833981810160405281019061003291906100d9565b33600160006101000a81548173ffffffffffffffffffffffffffffffffffffffff021916908373ffffffffffffffffffffffffffffffffffffffff1602179055508060008190555080600260003373ffffffffffffffffffffffffffffffffffffffff1673ffffffffffffffffffffffffffffffffffffffff1681526020019081526020016000208190555050610123565b6000815190506100d38161010c565b92915050565b6000602082840312156100eb57600080fd5b60006100f9848285016100c4565b91505092915050565b6000819050919050565b61011581610102565b811461012057600080fd5b50565b610de4806101326000396000f3fe608060405234801561001057600080fd5b506004361061009e5760003560e01c806370a082311161006657806370a082311461015d57806395d89b411461018d578063a9059cbb146101ab578063dd62ed3e146101db578063f851a4401461020b5761009e565b806306fdde03146100a3578063095ea7b3146100c157806318160ddd146100f157806323b872dd1461010f5780635a3b7e421461013f575b600080fd5b6100ab610229565b6040516100b89190610a6f565b60405180910390f35b6100db60048036038101906100d6919061092e565b610262565b6040516100e89190610a54565b60405180910390f35b6100f96103d8565b6040516101069190610af1565b60405180910390f35b610129600480360381019061012491906108df565b6103de565b6040516101369190610a54565b60405180910390f35b6101476105ca565b6040516101549190610a6f565b60405180910390f35b6101776004803603810190610172919061087a565b610603565b6040516101849190610af1565b60405180910390f35b61019561061b565b6040516101a29190610a6f565b60405180910390f35b6101c560048036038101906101c0919061092e565b610654565b6040516101d29190610a54565b60405180910390f35b6101f560048036038101906101f091906108a3565b6106ef565b6040516102029190610af1565b60405180910390f35b610213610714565b6040516102209190610a39565b60405180910390f35b6040518060400160405280600a81526020017f4441505020546f6b656e0000000000000000000000000000000000000000000081525081565b600081600260003373ffffffffffffffffffffffffffffffffffffffff1673ffffffffffffffffffffffffffffffffffffffff168152602001908152602001600020548111156102e7576040517f08c379a00000000000000000000000000000000000000000000000000000000081526004016102de90610ad1565b60405180910390fd5b82600360003373ffffffffffffffffffffffffffffffffffffffff1673ffffffffffffffffffffffffffffffffffffffff16815260200190815260200160002060008673ffffffffffffffffffffffffffffffffffffffff1673ffffffffffffffffffffffffffffffffffffffff168152602001908152602001600020819055508373ffffffffffffffffffffffffffffffffffffffff163373ffffffffffffffffffffffffffffffffffffffff167f8c5be1e5ebec7d5bd14f71427d1e84f3dd0314c0f7b2291e5b200ac8c7c3b925856040516103c59190610af1565b60405180910390a3600191505092915050565b60005481565b6000600260008573ffffffffffffffffffffffffffffffffffffffff1673ffffffffffffffffffffffffffffffffffffffff16815260200190815260200160002054821115610462576040517f08c379a000000000000000000000000000000000000000000000000000000000815260040161045990610a91565b60405180910390fd5b600360008573ffffffffffffffffffffffffffffffffffffffff1673ffffffffffffffffffffffffffffffffffffffff16815260200190815260200160002060003373ffffffffffffffffffffffffffffffffffffffff1673ffffffffffffffffffffffffffffffffffffffff16815260200190815260200160002054821115610521576040517f08c379a000000000000000000000000000000000000000000000000000000000815260040161051890610ab1565b60405180910390fd5b81600360008673ffffffffffffffffffffffffffffffffffffffff1673ffffffffffffffffffffffffffffffffffffffff16815260200190815260200160002060003373ffffffffffffffffffffffffffffffffffffffff1673ffffffffffffffffffffffffffffffffffffffff16815260200190815260200160002060008282546105ad9190610b7e565b925050819055506105bf84848461073a565b600190509392505050565b6040518060400160405280601281526020017f4441505020746f6b656e207620312e302e30000000000000000000000000000081525081565b60026020528060005260406000206000915090505481565b6040518060400160405280600481526020017f444150540000000000000000000000000000000000000000000000000000000081525081565b600081600260003373ffffffffffffffffffffffffffffffffffffffff1673ffffffffffffffffffffffffffffffffffffffff168152602001908152602001600020548111156106d9576040517f08c379a00000000000000000000000000000000000000000000000000000000081526004016106d090610ad1565b60405180910390fd5b6106e433858561073a565b600191505092915050565b6003602052816000526040600020602052806000526040600020600091509150505481565b600160009054906101000a900473ffffffffffffffffffffffffffffffffffffffff1681565b80600260008573ffffffffffffffffffffffffffffffffffffffff1673ffffffffffffffffffffffffffffffffffffffff16815260200190815260200160002060008282546107899190610b7e565b9250508190555080600260008473ffffffffffffffffffffffffffffffffffffffff1673ffffffffffffffffffffffffffffffffffffffff16815260200190815260200160002060008282546107df9190610b28565b925050819055508173ffffffffffffffffffffffffffffffffffffffff168373ffffffffffffffffffffffffffffffffffffffff167fddf252ad1be2c89b69c2b068fc378daa952ba7f163c4a11628f55a4df523b3ef836040516108439190610af1565b60405180910390a3505050565b60008135905061085f81610d80565b92915050565b60008135905061087481610d97565b92915050565b60006020828403121561088c57600080fd5b600061089a84828501610850565b91505092915050565b600080604083850312156108b657600080fd5b60006108c485828601610850565b92505060206108d585828601610850565b9150509250929050565b6000806000606084860312156108f457600080fd5b600061090286828701610850565b935050602061091386828701610850565b925050604061092486828701610865565b9150509250925092565b6000806040838503121561094157600080fd5b600061094f85828601610850565b925050602061096085828601610865565b9150509250929050565b61097381610bb2565b82525050565b61098281610bc4565b82525050565b600061099382610b0c565b61099d8185610b17565b93506109ad818560208601610bfa565b6109b681610c5c565b840191505092915050565b60006109ce603f83610b17565b91506109d982610c6d565b604082019050919050565b60006109f1604783610b17565b91506109fc82610cbc565b606082019050919050565b6000610a14603383610b17565b9150610a1f82610d31565b604082019050919050565b610a3381610bf0565b82525050565b6000602082019050610a4e600083018461096a565b92915050565b6000602082019050610a696000830184610979565b92915050565b60006020820190508181036000830152610a898184610988565b905092915050565b60006020820190508181036000830152610aaa816109c1565b9050919050565b60006020820190508181036000830152610aca816109e4565b9050919050565b60006020820190508181036000830152610aea81610a07565b9050919050565b6000602082019050610b066000830184610a2a565b92915050565b600081519050919050565b600082825260208201905092915050565b6000610b3382610bf0565b9150610b3e83610bf0565b9250827fffffffffffffffffffffffffffffffffffffffffffffffffffffffffffffffff03821115610b7357610b72610c2d565b5b828201905092915050565b6000610b8982610bf0565b9150610b9483610bf0565b925082821015610ba757610ba6610c2d565b5b828203905092915050565b6000610bbd82610bd0565b9050919050565b60008115159050919050565b600073ffffffffffffffffffffffffffffffffffffffff82169050919050565b6000819050919050565b60005b83811015610c18578082015181840152602081019050610bfd565b83811115610c27576000848401525b50505050565b7f4e487b7100000000000000000000000000000000000000000000000000000000600052601160045260246000fd5b6000601f19601f8301169050919050565b7f726571756573746564206163636f756e7420686173206e6f7420656e6f75676860008201527f20746f6b656e7320746f20636f6d6d69742074686973207472616e7366657200602082015250565b7f796f7520617265206e6f7420616c6c6f77656420746f207472616e736665722060008201527f7468617420616d6f756e74206f6620746f6b656e732066726f6d20746869732060208201527f6163636f756e7400000000000000000000000000000000000000000000000000604082015250565b7f796f7520686176656e277420656e6f7567687420746f6b656e7320746f20636f60008201527f6d6d69742074686973206f7065726174696f6e00000000000000000000000000602082015250565b610d8981610bb2565b8114610d9457600080fd5b50565b610da081610bf0565b8114610dab57600080fd5b5056fea2646970667358221220b097439f306a7f21b17225947fe93aff14e4c1f014236bad39a6bc84b86ddabb64736f6c63430008040033",
  "immutableReferences": {},
  "source": "// SPDX-License-Identifier: MIT\r\npragma solidity >=0.7.0;\r\n\r\ncontract Token\r\n{\r\n\t// var\r\n\tstring constant public name = \"DAPP Token\";\r\n\tstring constant public symbol = \"DAPT\";\r\n\tstring constant public standard = \"DAPP token v 1.0.0\";\r\n\tuint256 \t\tpublic totalSupply;\r\n\taddress \t\tpublic admin;\r\n\r\n\tmapping (address => uint256) public balanceOf;\r\n\tmapping (address => mapping (address => uint256)) public allowance;\r\n\r\n\t// events\r\n\tevent Transfer\r\n\t(\r\n\t\taddress indexed _from,\r\n\t\taddress indexed _to\t ,\r\n\t\tuint256 \t\t_value\r\n\t);\r\n\r\n\tevent Approval\r\n\t(\r\n\t\taddress indexed _owner  ,\r\n\t\taddress indexed _spender,\r\n\t\tuint256 \t\t_value\r\n\t);\r\n\r\n\t// modifiers\r\n\tmodifier enoughtTokens (\r\n\t\tuint256 _value\r\n\t) {\r\n\t\trequire (\r\n\t\t\t_value <= balanceOf[msg.sender],\r\n\t\t\t\"you haven't enought tokens to commit this operation\"\r\n\t\t);\r\n\t\t_;\r\n\t}\r\n\r\n\t// construct\r\n\tconstructor (uint256 _initialSupply)\r\n\t{\r\n\t\tadmin = msg.sender;\r\n\t\ttotalSupply = _initialSupply;\r\n\t\tbalanceOf [msg.sender] = _initialSupply;\r\n\t}\r\n\r\n\t// transfer\r\n\tfunction transfer\r\n\t(\r\n\t\taddress _to,\r\n\t\tuint256 _value\r\n\t)\r\n\t\tpublic\r\n\t\tenoughtTokens(_value)\r\n\t\treturns (bool success)\r\n\t{\r\n\t\t_transfer (msg.sender, _to, _value);\r\n\t\treturn true;\r\n\t}\r\n\r\n\t// approve ability for _spender to transfer _value tokens from my balance\r\n\tfunction approve\r\n\t(\r\n\t\taddress _spender,\r\n\t\tuint256 _value\r\n\t)\r\n\t\tpublic\r\n\t\tenoughtTokens(_value)\r\n\t\treturns (bool success)\r\n\t{\r\n\t\tallowance [msg.sender] [_spender] = _value;\r\n\t\temit Approval (msg.sender, _spender, _value);\r\n\t\treturn true;\r\n\t}\r\n\r\n\t// transfer the approved amout of tokens\r\n\tfunction transferFrom\r\n\t(\r\n\t\taddress _from,\r\n\t\taddress _to,\r\n\t\tuint256 _value\r\n\t)\r\n\t\tpublic\r\n\t\treturns (bool success)\r\n\t{\r\n\t\trequire (\r\n\t\t\t_value <= balanceOf [_from],\r\n\t\t\t\"requested account has not enough tokens to commit this transfer\"\r\n\t\t);\r\n\t\trequire (\r\n\t\t\t_value <= allowance [_from] [msg.sender],\r\n\t\t\t\"you are not allowed to transfer that amount of tokens from this account\"\r\n\t\t);\r\n\r\n\t\tallowance [_from] [msg.sender] -= _value;\r\n\t\t_transfer (_from, _to, _value);\r\n\r\n\t\treturn true;\r\n\t}\r\n\r\n\t// private functions\r\n\tfunction _transfer\r\n\t(\r\n\t\taddress _from,\r\n\t\taddress _to,\r\n\t\tuint256 _value\r\n\t)\r\n\t\tprivate\r\n\t{\r\n\t\tbalanceOf [_from] -= _value;\r\n\t\tbalanceOf [_to  ] += _value;\r\n\r\n\t\temit Transfer (_from, _to, _value);\r\n\t}\r\n}",
  "sourcePath": "G:/solidity/sol_4_token/contracts/Token.sol",
  "compiler": {
    "name": "solc",
    "version": "0.8.4+commit.c7e474f2.Emscripten.clang"
  },
  "schemaVersion": "3.4.0",
  "updatedAt": "2021-05-10T07:17:17.195Z",
  "networkType": "ethereum",
  "devdoc": {
    "kind": "dev",
    "methods": {},
    "version": 1
  },
  "userdoc": {
    "kind": "user",
    "methods": {},
    "version": 1
  }
}